{
  "_format": "hh-sol-artifact-1",
  "contractName": "jobsWeb3",
  "sourceName": "contracts/jobsWeb3.sol",
  "abi": [
    {
      "inputs": [],
      "stateMutability": "nonpayable",
      "type": "constructor"
    },
    {
      "anonymous": false,
      "inputs": [
        {
          "indexed": false,
          "internalType": "string",
          "name": "nombre",
          "type": "string"
        },
        {
          "indexed": false,
          "internalType": "string",
          "name": "apellido",
          "type": "string"
        },
        {
          "indexed": false,
          "internalType": "string",
          "name": "cartaDePresentacion",
          "type": "string"
        },
        {
          "indexed": false,
          "internalType": "string",
          "name": "portafolio",
          "type": "string"
        },
        {
          "indexed": false,
          "internalType": "string",
          "name": "linkedin",
          "type": "string"
        }
      ],
      "name": "newProfesional",
      "type": "event"
    },
    {
      "anonymous": false,
      "inputs": [
        {
          "indexed": false,
          "internalType": "string",
          "name": "MarketStall",
          "type": "string"
        },
        {
          "indexed": false,
          "internalType": "string",
          "name": "business",
          "type": "string"
        },
        {
          "indexed": false,
          "internalType": "string",
          "name": "country",
          "type": "string"
        },
        {
          "indexed": false,
          "internalType": "string",
          "name": "description",
          "type": "string"
        },
        {
          "indexed": false,
          "internalType": "uint256",
          "name": "vacancies",
          "type": "uint256"
        },
        {
          "indexed": false,
          "internalType": "uint256",
          "name": "salary",
          "type": "uint256"
        },
        {
          "indexed": false,
          "internalType": "string",
          "name": "Contact",
          "type": "string"
        },
        {
          "indexed": false,
          "internalType": "bytes32",
          "name": "id",
          "type": "bytes32"
        }
      ],
      "name": "nuevoTrabajo",
      "type": "event"
    },
    {
      "inputs": [
        {
          "internalType": "string",
          "name": "_nombre",
          "type": "string"
        },
        {
          "internalType": "string",
          "name": "_apellido",
          "type": "string"
        },
        {
          "internalType": "string",
          "name": "_cartaDePresentacion",
          "type": "string"
        },
        {
          "internalType": "string",
          "name": "_portafolio",
          "type": "string"
        },
        {
          "internalType": "string",
          "name": "_linkedin",
          "type": "string"
        },
        {
          "internalType": "bytes32",
          "name": "_ID",
          "type": "bytes32"
        }
      ],
      "name": "postular",
      "outputs": [],
      "stateMutability": "nonpayable",
      "type": "function"
    },
    {
      "inputs": [
        {
          "internalType": "string",
          "name": "_MarketStall",
          "type": "string"
        },
        {
          "internalType": "string",
          "name": "_business",
          "type": "string"
        },
        {
          "internalType": "string",
          "name": "_country",
          "type": "string"
        },
        {
          "internalType": "string",
          "name": "_description",
          "type": "string"
        },
        {
          "internalType": "uint256",
          "name": "_vacancies",
          "type": "uint256"
        },
        {
          "internalType": "uint256",
          "name": "_salary",
          "type": "uint256"
        },
        {
          "internalType": "string",
          "name": "_Contact",
          "type": "string"
        }
      ],
      "name": "publicarTrabajo",
      "outputs": [],
      "stateMutability": "payable",
      "type": "function"
    },
    {
      "inputs": [],
      "name": "retirar",
      "outputs": [],
      "stateMutability": "payable",
      "type": "function"
    },
    {
      "inputs": [
        {
          "internalType": "bytes32",
          "name": "_id",
          "type": "bytes32"
        }
      ],
      "name": "returnPostulantes",
      "outputs": [
        {
          "internalType": "address[]",
          "name": "",
          "type": "address[]"
        }
      ],
      "stateMutability": "view",
      "type": "function"
    },
    {
      "inputs": [],
      "name": "returnProfesionales",
      "outputs": [
        {
          "components": [
            {
              "internalType": "string",
              "name": "nombre",
              "type": "string"
            },
            {
              "internalType": "string",
              "name": "apellido",
              "type": "string"
            },
            {
              "internalType": "string",
              "name": "cartaDePresentacion",
              "type": "string"
            },
            {
              "internalType": "string",
              "name": "portafolio",
              "type": "string"
            },
            {
              "internalType": "string",
              "name": "linkedin",
              "type": "string"
            }
          ],
          "internalType": "struct jobsWeb3.profesional[]",
          "name": "",
          "type": "tuple[]"
        }
      ],
      "stateMutability": "view",
      "type": "function"
    },
    {
      "inputs": [],
      "name": "returnTrabajos",
      "outputs": [
        {
          "components": [
            {
              "internalType": "string",
              "name": "MarketStall",
              "type": "string"
            },
            {
              "internalType": "string",
              "name": "business",
              "type": "string"
            },
            {
              "internalType": "string",
              "name": "country",
              "type": "string"
            },
            {
              "internalType": "string",
              "name": "description",
              "type": "string"
            },
            {
              "internalType": "uint256",
              "name": "vacancies",
              "type": "uint256"
            },
            {
              "internalType": "uint256",
              "name": "salary",
              "type": "uint256"
            },
            {
              "internalType": "string",
              "name": "Contact",
              "type": "string"
            },
            {
              "internalType": "bytes32",
              "name": "id",
              "type": "bytes32"
            },
            {
              "internalType": "address[]",
              "name": "applicants",
              "type": "address[]"
            }
          ],
          "internalType": "struct jobsWeb3.work[]",
          "name": "",
          "type": "tuple[]"
        }
      ],
      "stateMutability": "view",
      "type": "function"
    },
    {
      "inputs": [
        {
          "internalType": "address",
          "name": "",
          "type": "address"
        }
      ],
      "name": "verProfesionales",
      "outputs": [
        {
          "internalType": "string",
          "name": "nombre",
          "type": "string"
        },
        {
          "internalType": "string",
          "name": "apellido",
          "type": "string"
        },
        {
          "internalType": "string",
          "name": "cartaDePresentacion",
          "type": "string"
        },
        {
          "internalType": "string",
          "name": "portafolio",
          "type": "string"
        },
        {
          "internalType": "string",
          "name": "linkedin",
          "type": "string"
        }
      ],
      "stateMutability": "view",
      "type": "function"
    },
    {
      "inputs": [
        {
          "internalType": "bytes32",
          "name": "",
          "type": "bytes32"
        }
      ],
      "name": "verTrabajo",
      "outputs": [
        {
          "internalType": "string",
          "name": "MarketStall",
          "type": "string"
        },
        {
          "internalType": "string",
          "name": "business",
          "type": "string"
        },
        {
          "internalType": "string",
          "name": "country",
          "type": "string"
        },
        {
          "internalType": "string",
          "name": "description",
          "type": "string"
        },
        {
          "internalType": "uint256",
          "name": "vacancies",
          "type": "uint256"
        },
        {
          "internalType": "uint256",
          "name": "salary",
          "type": "uint256"
        },
        {
          "internalType": "string",
          "name": "Contact",
          "type": "string"
        },
        {
          "internalType": "bytes32",
          "name": "id",
          "type": "bytes32"
        }
      ],
      "stateMutability": "view",
      "type": "function"
    }
  ],
  "bytecode": "0x608060405234801561001057600080fd5b50336000806101000a81548173ffffffffffffffffffffffffffffffffffffffff021916908373ffffffffffffffffffffffffffffffffffffffff16021790555061293e806100606000396000f3fe60806040526004361061007a5760003560e01c806388abe5e41161004e57806388abe5e41461011c5780639b38164f14610160578063d80d20cd14610189578063dd91a382146101a55761007a565b80625a0d901461007f57806311597115146100bc5780634735a442146100e757806367f9be0d146100f1575b600080fd5b34801561008b57600080fd5b506100a660048036038101906100a19190611a52565b6101e6565b6040516100b39190611b6f565b60405180910390f35b3480156100c857600080fd5b506100d16105a5565b6040516100de9190611e62565b60405180910390f35b6100ef61098b565b005b3480156100fd57600080fd5b50610106610a43565b6040516101139190611fd8565b60405180910390f35b34801561012857600080fd5b50610143600480360381019061013e9190611a52565b610d7c565b604051610157989796959493929190612062565b60405180910390f35b34801561016c57600080fd5b5061018760048036038101906101829190612238565b61106c565b005b6101a3600480360381019061019e919061237d565b6112de565b005b3480156101b157600080fd5b506101cc60048036038101906101c791906124d7565b611683565b6040516101dd959493929190612504565b60405180910390f35b606060006004600084815260200190815260200160002060405180610120016040529081600082018054610219906125a9565b80601f0160208091040260200160405190810160405280929190818152602001828054610245906125a9565b80156102925780601f1061026757610100808354040283529160200191610292565b820191906000526020600020905b81548152906001019060200180831161027557829003601f168201915b505050505081526020016001820180546102ab906125a9565b80601f01602080910402602001604051908101604052809291908181526020018280546102d7906125a9565b80156103245780601f106102f957610100808354040283529160200191610324565b820191906000526020600020905b81548152906001019060200180831161030757829003601f168201915b5050505050815260200160028201805461033d906125a9565b80601f0160208091040260200160405190810160405280929190818152602001828054610369906125a9565b80156103b65780601f1061038b576101008083540402835291602001916103b6565b820191906000526020600020905b81548152906001019060200180831161039957829003601f168201915b505050505081526020016003820180546103cf906125a9565b80601f01602080910402602001604051908101604052809291908181526020018280546103fb906125a9565b80156104485780601f1061041d57610100808354040283529160200191610448565b820191906000526020600020905b81548152906001019060200180831161042b57829003601f168201915b505050505081526020016004820154815260200160058201548152602001600682018054610475906125a9565b80601f01602080910402602001604051908101604052809291908181526020018280546104a1906125a9565b80156104ee5780601f106104c3576101008083540402835291602001916104ee565b820191906000526020600020905b8154815290600101906020018083116104d157829003601f168201915b50505050508152602001600782015481526020016008820180548060200260200160405190810160405280929190818152602001828054801561058657602002820191906000526020600020905b8160009054906101000a900473ffffffffffffffffffffffffffffffffffffffff1673ffffffffffffffffffffffffffffffffffffffff168152602001906001019080831161053c575b5050505050815250509050600081610100015190508092505050919050565b60606001805480602002602001604051908101604052809291908181526020016000905b828210156109825783829060005260206000209060090201604051806101200160405290816000820180546105fd906125a9565b80601f0160208091040260200160405190810160405280929190818152602001828054610629906125a9565b80156106765780601f1061064b57610100808354040283529160200191610676565b820191906000526020600020905b81548152906001019060200180831161065957829003601f168201915b5050505050815260200160018201805461068f906125a9565b80601f01602080910402602001604051908101604052809291908181526020018280546106bb906125a9565b80156107085780601f106106dd57610100808354040283529160200191610708565b820191906000526020600020905b8154815290600101906020018083116106eb57829003601f168201915b50505050508152602001600282018054610721906125a9565b80601f016020809104026020016040519081016040528092919081815260200182805461074d906125a9565b801561079a5780601f1061076f5761010080835404028352916020019161079a565b820191906000526020600020905b81548152906001019060200180831161077d57829003601f168201915b505050505081526020016003820180546107b3906125a9565b80601f01602080910402602001604051908101604052809291908181526020018280546107df906125a9565b801561082c5780601f106108015761010080835404028352916020019161082c565b820191906000526020600020905b81548152906001019060200180831161080f57829003601f168201915b505050505081526020016004820154815260200160058201548152602001600682018054610859906125a9565b80601f0160208091040260200160405190810160405280929190818152602001828054610885906125a9565b80156108d25780601f106108a7576101008083540402835291602001916108d2565b820191906000526020600020905b8154815290600101906020018083116108b557829003601f168201915b50505050508152602001600782015481526020016008820180548060200260200160405190810160405280929190818152602001828054801561096a57602002820191906000526020600020905b8160009054906101000a900473ffffffffffffffffffffffffffffffffffffffff1673ffffffffffffffffffffffffffffffffffffffff1681526020019060010190808311610920575b505050505081525050815260200190600101906105c9565b50505050905090565b3373ffffffffffffffffffffffffffffffffffffffff1660008054906101000a900473ffffffffffffffffffffffffffffffffffffffff1673ffffffffffffffffffffffffffffffffffffffff16146109e357600080fd5b60008054906101000a900473ffffffffffffffffffffffffffffffffffffffff1673ffffffffffffffffffffffffffffffffffffffff166108fc479081150290604051600060405180830381858888f19350505050610a4157600080fd5b565b60606002805480602002602001604051908101604052809291908181526020016000905b82821015610d7357838290600052602060002090600502016040518060a0016040529081600082018054610a9a906125a9565b80601f0160208091040260200160405190810160405280929190818152602001828054610ac6906125a9565b8015610b135780601f10610ae857610100808354040283529160200191610b13565b820191906000526020600020905b815481529060010190602001808311610af657829003601f168201915b50505050508152602001600182018054610b2c906125a9565b80601f0160208091040260200160405190810160405280929190818152602001828054610b58906125a9565b8015610ba55780601f10610b7a57610100808354040283529160200191610ba5565b820191906000526020600020905b815481529060010190602001808311610b8857829003601f168201915b50505050508152602001600282018054610bbe906125a9565b80601f0160208091040260200160405190810160405280929190818152602001828054610bea906125a9565b8015610c375780601f10610c0c57610100808354040283529160200191610c37565b820191906000526020600020905b815481529060010190602001808311610c1a57829003601f168201915b50505050508152602001600382018054610c50906125a9565b80601f0160208091040260200160405190810160405280929190818152602001828054610c7c906125a9565b8015610cc95780601f10610c9e57610100808354040283529160200191610cc9565b820191906000526020600020905b815481529060010190602001808311610cac57829003601f168201915b50505050508152602001600482018054610ce2906125a9565b80601f0160208091040260200160405190810160405280929190818152602001828054610d0e906125a9565b8015610d5b5780601f10610d3057610100808354040283529160200191610d5b565b820191906000526020600020905b815481529060010190602001808311610d3e57829003601f168201915b50505050508152505081526020019060010190610a67565b50505050905090565b6004602052806000526040600020600091509050806000018054610d9f906125a9565b80601f0160208091040260200160405190810160405280929190818152602001828054610dcb906125a9565b8015610e185780601f10610ded57610100808354040283529160200191610e18565b820191906000526020600020905b815481529060010190602001808311610dfb57829003601f168201915b505050505090806001018054610e2d906125a9565b80601f0160208091040260200160405190810160405280929190818152602001828054610e59906125a9565b8015610ea65780601f10610e7b57610100808354040283529160200191610ea6565b820191906000526020600020905b815481529060010190602001808311610e8957829003601f168201915b505050505090806002018054610ebb906125a9565b80601f0160208091040260200160405190810160405280929190818152602001828054610ee7906125a9565b8015610f345780601f10610f0957610100808354040283529160200191610f34565b820191906000526020600020905b815481529060010190602001808311610f1757829003601f168201915b505050505090806003018054610f49906125a9565b80601f0160208091040260200160405190810160405280929190818152602001828054610f75906125a9565b8015610fc25780601f10610f9757610100808354040283529160200191610fc2565b820191906000526020600020905b815481529060010190602001808311610fa557829003601f168201915b505050505090806004015490806005015490806006018054610fe3906125a9565b80601f016020809104026020016040519081016040528092919081815260200182805461100f906125a9565b801561105c5780601f106110315761010080835404028352916020019161105c565b820191906000526020600020905b81548152906001019060200180831161103f57829003601f168201915b5050505050908060070154905088565b600060046000838152602001908152602001600020905080600801339080600181540180825580915050600190039060005260206000200160009091909190916101000a81548173ffffffffffffffffffffffffffffffffffffffff021916908373ffffffffffffffffffffffffffffffffffffffff16021790555060046000838152602001908152602001600020905060026040518060a0016040528089815260200188815260200187815260200186815260200185815250908060018154018082558091505060019003906000526020600020906005020160009091909190915060008201518160000190816111649190612786565b50602082015181600101908161117a9190612786565b5060408201518160020190816111909190612786565b5060608201518160030190816111a69190612786565b5060808201518160040190816111bc9190612786565b5050506040518060a0016040528088815260200187815260200186815260200185815260200184815250600560003373ffffffffffffffffffffffffffffffffffffffff1673ffffffffffffffffffffffffffffffffffffffff168152602001908152602001600020600082015181600001908161123a9190612786565b5060208201518160010190816112509190612786565b5060408201518160020190816112669190612786565b50606082015181600301908161127c9190612786565b5060808201518160040190816112929190612786565b509050507f122a6492c91b2a1dcf33e577f69f8df5e67fc80c1e8b371384c8a48528229a9387878787876040516112cd959493929190612504565b60405180910390a150505050505050565b600084888486856040516020016112f99594939291906128b5565b60405160208183030381529060405280519060200120905060016040518061012001604052808a815260200189815260200188815260200187815260200186815260200185815260200184815260200183815260200160038054806020026020016040519081016040528092919081815260200182805480156113d157602002820191906000526020600020905b8160009054906101000a900473ffffffffffffffffffffffffffffffffffffffff1673ffffffffffffffffffffffffffffffffffffffff1681526020019060010190808311611387575b5050505050815250908060018154018082558091505060019003906000526020600020906009020160009091909190915060008201518160000190816114179190612786565b50602082015181600101908161142d9190612786565b5060408201518160020190816114439190612786565b5060608201518160030190816114599190612786565b506080820151816004015560a0820151816005015560c08201518160060190816114839190612786565b5060e082015181600701556101008201518160080190805190602001906114ab929190611961565b505050604051806101200160405280898152602001888152602001878152602001868152602001858152602001848152602001838152602001828152602001600380548060200260200160405190810160405280929190818152602001828054801561156c57602002820191906000526020600020905b8160009054906101000a900473ffffffffffffffffffffffffffffffffffffffff1673ffffffffffffffffffffffffffffffffffffffff1681526020019060010190808311611522575b505050505081525060046000838152602001908152602001600020600082015181600001908161159c9190612786565b5060208201518160010190816115b29190612786565b5060408201518160020190816115c89190612786565b5060608201518160030190816115de9190612786565b506080820151816004015560a0820151816005015560c08201518160060190816116089190612786565b5060e08201518160070155610100820151816008019080519060200190611630929190611961565b509050507fe8a3b6ca5d574284425df87bf756e9f49e7e35486652c783a98644216c9d43678888888888888888604051611671989796959493929190612062565b60405180910390a15050505050505050565b60056020528060005260406000206000915090508060000180546116a6906125a9565b80601f01602080910402602001604051908101604052809291908181526020018280546116d2906125a9565b801561171f5780601f106116f45761010080835404028352916020019161171f565b820191906000526020600020905b81548152906001019060200180831161170257829003601f168201915b505050505090806001018054611734906125a9565b80601f0160208091040260200160405190810160405280929190818152602001828054611760906125a9565b80156117ad5780601f10611782576101008083540402835291602001916117ad565b820191906000526020600020905b81548152906001019060200180831161179057829003601f168201915b5050505050908060020180546117c2906125a9565b80601f01602080910402602001604051908101604052809291908181526020018280546117ee906125a9565b801561183b5780601f106118105761010080835404028352916020019161183b565b820191906000526020600020905b81548152906001019060200180831161181e57829003601f168201915b505050505090806003018054611850906125a9565b80601f016020809104026020016040519081016040528092919081815260200182805461187c906125a9565b80156118c95780601f1061189e576101008083540402835291602001916118c9565b820191906000526020600020905b8154815290600101906020018083116118ac57829003601f168201915b5050505050908060040180546118de906125a9565b80601f016020809104026020016040519081016040528092919081815260200182805461190a906125a9565b80156119575780601f1061192c57610100808354040283529160200191611957565b820191906000526020600020905b81548152906001019060200180831161193a57829003601f168201915b5050505050905085565b8280548282559060005260206000209081019282156119da579160200282015b828111156119d95782518260006101000a81548173ffffffffffffffffffffffffffffffffffffffff021916908373ffffffffffffffffffffffffffffffffffffffff16021790555091602001919060010190611981565b5b5090506119e791906119eb565b5090565b5b80821115611a045760008160009055506001016119ec565b5090565b6000604051905090565b600080fd5b600080fd5b6000819050919050565b611a2f81611a1c565b8114611a3a57600080fd5b50565b600081359050611a4c81611a26565b92915050565b600060208284031215611a6857611a67611a12565b5b6000611a7684828501611a3d565b91505092915050565b600081519050919050565b600082825260208201905092915050565b6000819050602082019050919050565b600073ffffffffffffffffffffffffffffffffffffffff82169050919050565b6000611ad682611aab565b9050919050565b611ae681611acb565b82525050565b6000611af88383611add565b60208301905092915050565b6000602082019050919050565b6000611b1c82611a7f565b611b268185611a8a565b9350611b3183611a9b565b8060005b83811015611b62578151611b498882611aec565b9750611b5483611b04565b925050600181019050611b35565b5085935050505092915050565b60006020820190508181036000830152611b898184611b11565b905092915050565b600081519050919050565b600082825260208201905092915050565b6000819050602082019050919050565b600081519050919050565b600082825260208201905092915050565b60005b83811015611bf7578082015181840152602081019050611bdc565b60008484015250505050565b6000601f19601f8301169050919050565b6000611c1f82611bbd565b611c298185611bc8565b9350611c39818560208601611bd9565b611c4281611c03565b840191505092915050565b6000819050919050565b611c6081611c4d565b82525050565b611c6f81611a1c565b82525050565b600082825260208201905092915050565b6000611c9182611a7f565b611c9b8185611c75565b9350611ca683611a9b565b8060005b83811015611cd7578151611cbe8882611aec565b9750611cc983611b04565b925050600181019050611caa565b5085935050505092915050565b6000610120830160008301518482036000860152611d028282611c14565b91505060208301518482036020860152611d1c8282611c14565b91505060408301518482036040860152611d368282611c14565b91505060608301518482036060860152611d508282611c14565b9150506080830151611d656080860182611c57565b5060a0830151611d7860a0860182611c57565b5060c083015184820360c0860152611d908282611c14565b91505060e0830151611da560e0860182611c66565b50610100830151848203610100860152611dbf8282611c86565b9150508091505092915050565b6000611dd88383611ce4565b905092915050565b6000602082019050919050565b6000611df882611b91565b611e028185611b9c565b935083602082028501611e1485611bad565b8060005b85811015611e505784840389528151611e318582611dcc565b9450611e3c83611de0565b925060208a01995050600181019050611e18565b50829750879550505050505092915050565b60006020820190508181036000830152611e7c8184611ded565b905092915050565b600081519050919050565b600082825260208201905092915050565b6000819050602082019050919050565b600060a0830160008301518482036000860152611ecd8282611c14565b91505060208301518482036020860152611ee78282611c14565b91505060408301518482036040860152611f018282611c14565b91505060608301518482036060860152611f1b8282611c14565b91505060808301518482036080860152611f358282611c14565b9150508091505092915050565b6000611f4e8383611eb0565b905092915050565b6000602082019050919050565b6000611f6e82611e84565b611f788185611e8f565b935083602082028501611f8a85611ea0565b8060005b85811015611fc65784840389528151611fa78582611f42565b9450611fb283611f56565b925060208a01995050600181019050611f8e565b50829750879550505050505092915050565b60006020820190508181036000830152611ff28184611f63565b905092915050565b600082825260208201905092915050565b600061201682611bbd565b6120208185611ffa565b9350612030818560208601611bd9565b61203981611c03565b840191505092915050565b61204d81611c4d565b82525050565b61205c81611a1c565b82525050565b600061010082019050818103600083015261207d818b61200b565b90508181036020830152612091818a61200b565b905081810360408301526120a5818961200b565b905081810360608301526120b9818861200b565b90506120c86080830187612044565b6120d560a0830186612044565b81810360c08301526120e7818561200b565b90506120f660e0830184612053565b9998505050505050505050565b600080fd5b600080fd5b7f4e487b7100000000000000000000000000000000000000000000000000000000600052604160045260246000fd5b61214582611c03565b810181811067ffffffffffffffff821117156121645761216361210d565b5b80604052505050565b6000612177611a08565b9050612183828261213c565b919050565b600067ffffffffffffffff8211156121a3576121a261210d565b5b6121ac82611c03565b9050602081019050919050565b82818337600083830152505050565b60006121db6121d684612188565b61216d565b9050828152602081018484840111156121f7576121f6612108565b5b6122028482856121b9565b509392505050565b600082601f83011261221f5761221e612103565b5b813561222f8482602086016121c8565b91505092915050565b60008060008060008060c0878903121561225557612254611a12565b5b600087013567ffffffffffffffff81111561227357612272611a17565b5b61227f89828a0161220a565b965050602087013567ffffffffffffffff8111156122a05761229f611a17565b5b6122ac89828a0161220a565b955050604087013567ffffffffffffffff8111156122cd576122cc611a17565b5b6122d989828a0161220a565b945050606087013567ffffffffffffffff8111156122fa576122f9611a17565b5b61230689828a0161220a565b935050608087013567ffffffffffffffff81111561232757612326611a17565b5b61233389828a0161220a565b92505060a061234489828a01611a3d565b9150509295509295509295565b61235a81611c4d565b811461236557600080fd5b50565b60008135905061237781612351565b92915050565b600080600080600080600060e0888a03121561239c5761239b611a12565b5b600088013567ffffffffffffffff8111156123ba576123b9611a17565b5b6123c68a828b0161220a565b975050602088013567ffffffffffffffff8111156123e7576123e6611a17565b5b6123f38a828b0161220a565b965050604088013567ffffffffffffffff81111561241457612413611a17565b5b6124208a828b0161220a565b955050606088013567ffffffffffffffff81111561244157612440611a17565b5b61244d8a828b0161220a565b945050608061245e8a828b01612368565b93505060a061246f8a828b01612368565b92505060c088013567ffffffffffffffff8111156124905761248f611a17565b5b61249c8a828b0161220a565b91505092959891949750929550565b6124b481611acb565b81146124bf57600080fd5b50565b6000813590506124d1816124ab565b92915050565b6000602082840312156124ed576124ec611a12565b5b60006124fb848285016124c2565b91505092915050565b600060a082019050818103600083015261251e818861200b565b90508181036020830152612532818761200b565b90508181036040830152612546818661200b565b9050818103606083015261255a818561200b565b9050818103608083015261256e818461200b565b90509695505050505050565b7f4e487b7100000000000000000000000000000000000000000000000000000000600052602260045260246000fd5b600060028204905060018216806125c157607f821691505b6020821081036125d4576125d361257a565b5b50919050565b60008190508160005260206000209050919050565b60006020601f8301049050919050565b600082821b905092915050565b60006008830261263c7fffffffffffffffffffffffffffffffffffffffffffffffffffffffffffffffff826125ff565b61264686836125ff565b95508019841693508086168417925050509392505050565b6000819050919050565b600061268361267e61267984611c4d565b61265e565b611c4d565b9050919050565b6000819050919050565b61269d83612668565b6126b16126a98261268a565b84845461260c565b825550505050565b600090565b6126c66126b9565b6126d1818484612694565b505050565b5b818110156126f5576126ea6000826126be565b6001810190506126d7565b5050565b601f82111561273a5761270b816125da565b612714846125ef565b81016020851015612723578190505b61273761272f856125ef565b8301826126d6565b50505b505050565b600082821c905092915050565b600061275d6000198460080261273f565b1980831691505092915050565b6000612776838361274c565b9150826002028217905092915050565b61278f82611bbd565b67ffffffffffffffff8111156127a8576127a761210d565b5b6127b282546125a9565b6127bd8282856126f9565b600060209050601f8311600181146127f057600084156127de578287015190505b6127e8858261276a565b865550612850565b601f1984166127fe866125da565b60005b8281101561282657848901518255600182019150602085019450602081019050612801565b86831015612843578489015161283f601f89168261274c565b8355505b6001600288020188555050505b505050505050565b600081905092915050565b600061286e82611bbd565b6128788185612858565b9350612888818560208601611bd9565b80840191505092915050565b6000819050919050565b6128af6128aa82611c4d565b612894565b82525050565b60006128c18288612863565b91506128cd8287612863565b91506128d9828661289e565b6020820191506128e9828561289e565b6020820191506128f98284612863565b9150819050969550505050505056fea26469706673582212202c519ac6950db663013f5677596dfced2d15c7352f56f0d70015938d25552f1264736f6c63430008110033",
  "linkReferences": {},
  "deployedLinkReferences": {}
}