{
  "_format": "hh-sol-artifact-1",
  "contractName": "jobsWeb3",
  "sourceName": "contracts/jobsWeb3.sol",
  "abi": [
    {
      "inputs": [],
      "stateMutability": "nonpayable",
      "type": "constructor"
    },
    {
      "anonymous": false,
      "inputs": [
        {
          "indexed": false,
          "internalType": "string",
          "name": "MarketStall",
          "type": "string"
        },
        {
          "indexed": false,
          "internalType": "string",
          "name": "business",
          "type": "string"
        },
        {
          "indexed": false,
          "internalType": "string",
          "name": "country",
          "type": "string"
        },
        {
          "indexed": false,
          "internalType": "string",
          "name": "description",
          "type": "string"
        },
        {
          "indexed": false,
          "internalType": "uint256",
          "name": "vacancies",
          "type": "uint256"
        },
        {
          "indexed": false,
          "internalType": "uint256",
          "name": "salary",
          "type": "uint256"
        },
        {
          "indexed": false,
          "internalType": "string",
          "name": "Contact",
          "type": "string"
        },
        {
          "indexed": false,
          "internalType": "bytes32",
          "name": "id",
          "type": "bytes32"
        }
      ],
      "name": "newJob",
      "type": "event"
    },
    {
      "anonymous": false,
      "inputs": [
        {
          "indexed": false,
          "internalType": "string",
          "name": "name",
          "type": "string"
        },
        {
          "indexed": false,
          "internalType": "string",
          "name": "surname",
          "type": "string"
        },
        {
          "indexed": false,
          "internalType": "string",
          "name": "presentationLetter",
          "type": "string"
        },
        {
          "indexed": false,
          "internalType": "string",
          "name": "portfolio",
          "type": "string"
        },
        {
          "indexed": false,
          "internalType": "string",
          "name": "linkedin",
          "type": "string"
        }
      ],
      "name": "newProfesional",
      "type": "event"
    },
    {
      "inputs": [
        {
          "internalType": "string",
          "name": "_MarketStall",
          "type": "string"
        },
        {
          "internalType": "string",
          "name": "_business",
          "type": "string"
        },
        {
          "internalType": "string",
          "name": "_country",
          "type": "string"
        },
        {
          "internalType": "string",
          "name": "_description",
          "type": "string"
        },
        {
          "internalType": "uint256",
          "name": "_vacancies",
          "type": "uint256"
        },
        {
          "internalType": "uint256",
          "name": "_salary",
          "type": "uint256"
        },
        {
          "internalType": "string",
          "name": "_Contact",
          "type": "string"
        }
      ],
      "name": "postWork",
      "outputs": [],
      "stateMutability": "nonpayable",
      "type": "function"
    },
    {
      "inputs": [
        {
          "internalType": "string",
          "name": "_MarketStall",
          "type": "string"
        },
        {
          "internalType": "string",
          "name": "_business",
          "type": "string"
        },
        {
          "internalType": "string",
          "name": "_country",
          "type": "string"
        },
        {
          "internalType": "string",
          "name": "_description",
          "type": "string"
        },
        {
          "internalType": "uint256",
          "name": "_vacancies",
          "type": "uint256"
        },
        {
          "internalType": "uint256",
          "name": "_salary",
          "type": "uint256"
        },
        {
          "internalType": "string",
          "name": "_Contact",
          "type": "string"
        }
      ],
      "name": "postWorkPremium",
      "outputs": [],
      "stateMutability": "nonpayable",
      "type": "function"
    },
    {
      "inputs": [
        {
          "internalType": "bytes32",
          "name": "_ID",
          "type": "bytes32"
        }
      ],
      "name": "postulate",
      "outputs": [],
      "stateMutability": "nonpayable",
      "type": "function"
    },
    {
      "inputs": [
        {
          "internalType": "string",
          "name": "_name",
          "type": "string"
        },
        {
          "internalType": "string",
          "name": "_surname",
          "type": "string"
        },
        {
          "internalType": "string",
          "name": "_presentationLetter",
          "type": "string"
        },
        {
          "internalType": "string",
          "name": "_portfolio",
          "type": "string"
        },
        {
          "internalType": "string",
          "name": "_linkedin",
          "type": "string"
        }
      ],
      "name": "registerProfesional",
      "outputs": [],
      "stateMutability": "nonpayable",
      "type": "function"
    },
    {
      "inputs": [],
      "name": "restarting",
      "outputs": [],
      "stateMutability": "nonpayable",
      "type": "function"
    },
    {
      "inputs": [],
      "name": "returnProfesionales",
      "outputs": [
        {
          "components": [
            {
              "internalType": "string",
              "name": "name",
              "type": "string"
            },
            {
              "internalType": "string",
              "name": "surname",
              "type": "string"
            },
            {
              "internalType": "string",
              "name": "presentationLetter",
              "type": "string"
            },
            {
              "internalType": "string",
              "name": "portfolio",
              "type": "string"
            },
            {
              "internalType": "string",
              "name": "linkedin",
              "type": "string"
            }
          ],
          "internalType": "struct jobsWeb3.profesional[]",
          "name": "",
          "type": "tuple[]"
        }
      ],
      "stateMutability": "view",
      "type": "function"
    },
    {
      "inputs": [],
      "name": "returnjobs",
      "outputs": [
        {
          "components": [
            {
              "internalType": "string",
              "name": "MarketStall",
              "type": "string"
            },
            {
              "internalType": "string",
              "name": "business",
              "type": "string"
            },
            {
              "internalType": "string",
              "name": "country",
              "type": "string"
            },
            {
              "internalType": "string",
              "name": "description",
              "type": "string"
            },
            {
              "internalType": "uint256",
              "name": "vacancies",
              "type": "uint256"
            },
            {
              "internalType": "uint256",
              "name": "salary",
              "type": "uint256"
            },
            {
              "internalType": "string",
              "name": "Contact",
              "type": "string"
            },
            {
              "internalType": "bytes32",
              "name": "id",
              "type": "bytes32"
            },
            {
              "internalType": "address[]",
              "name": "applicants",
              "type": "address[]"
            }
          ],
          "internalType": "struct jobsWeb3.work[]",
          "name": "",
          "type": "tuple[]"
        }
      ],
      "stateMutability": "view",
      "type": "function"
    },
    {
      "inputs": [],
      "name": "returnjobsPremium",
      "outputs": [
        {
          "components": [
            {
              "internalType": "string",
              "name": "MarketStall",
              "type": "string"
            },
            {
              "internalType": "string",
              "name": "business",
              "type": "string"
            },
            {
              "internalType": "string",
              "name": "country",
              "type": "string"
            },
            {
              "internalType": "string",
              "name": "description",
              "type": "string"
            },
            {
              "internalType": "uint256",
              "name": "vacancies",
              "type": "uint256"
            },
            {
              "internalType": "uint256",
              "name": "salary",
              "type": "uint256"
            },
            {
              "internalType": "string",
              "name": "Contact",
              "type": "string"
            },
            {
              "internalType": "bytes32",
              "name": "id",
              "type": "bytes32"
            },
            {
              "internalType": "address[]",
              "name": "applicants",
              "type": "address[]"
            }
          ],
          "internalType": "struct jobsWeb3.work[]",
          "name": "",
          "type": "tuple[]"
        }
      ],
      "stateMutability": "view",
      "type": "function"
    },
    {
      "inputs": [
        {
          "internalType": "bytes32",
          "name": "_id",
          "type": "bytes32"
        }
      ],
      "name": "returnpostulant",
      "outputs": [
        {
          "internalType": "address[]",
          "name": "",
          "type": "address[]"
        }
      ],
      "stateMutability": "view",
      "type": "function"
    },
    {
      "inputs": [
        {
          "internalType": "address",
          "name": "",
          "type": "address"
        }
      ],
      "name": "seeProfesionales",
      "outputs": [
        {
          "internalType": "string",
          "name": "name",
          "type": "string"
        },
        {
          "internalType": "string",
          "name": "surname",
          "type": "string"
        },
        {
          "internalType": "string",
          "name": "presentationLetter",
          "type": "string"
        },
        {
          "internalType": "string",
          "name": "portfolio",
          "type": "string"
        },
        {
          "internalType": "string",
          "name": "linkedin",
          "type": "string"
        }
      ],
      "stateMutability": "view",
      "type": "function"
    },
    {
      "inputs": [
        {
          "internalType": "bytes32",
          "name": "",
          "type": "bytes32"
        }
      ],
      "name": "seeWork",
      "outputs": [
        {
          "internalType": "string",
          "name": "MarketStall",
          "type": "string"
        },
        {
          "internalType": "string",
          "name": "business",
          "type": "string"
        },
        {
          "internalType": "string",
          "name": "country",
          "type": "string"
        },
        {
          "internalType": "string",
          "name": "description",
          "type": "string"
        },
        {
          "internalType": "uint256",
          "name": "vacancies",
          "type": "uint256"
        },
        {
          "internalType": "uint256",
          "name": "salary",
          "type": "uint256"
        },
        {
          "internalType": "string",
          "name": "Contact",
          "type": "string"
        },
        {
          "internalType": "bytes32",
          "name": "id",
          "type": "bytes32"
        }
      ],
      "stateMutability": "view",
      "type": "function"
    },
    {
      "inputs": [],
      "name": "withdraw",
      "outputs": [],
      "stateMutability": "payable",
      "type": "function"
    }
  ],
  "bytecode": "0x608060405234801561001057600080fd5b50336000806101000a81548173ffffffffffffffffffffffffffffffffffffffff021916908373ffffffffffffffffffffffffffffffffffffffff1602179055506134d2806100606000396000f3fe6080604052600436106100a75760003560e01c806395f90eb81161006457806395f90eb8146101a0578063ab2394fb146101dd578063acf9dbb2146101f4578063af052e531461021f578063d5992da814610260578063e6e2c4d814610289576100a7565b806307b7c255146100ac5780630e458e5e146100f057806322eb7983146101195780633ccfd60b1461014257806367f9be0d1461014c5780639095207814610177575b600080fd5b3480156100b857600080fd5b506100d360048036038101906100ce91906124fa565b6102b4565b6040516100e79897969594939291906125df565b60405180910390f35b3480156100fc57600080fd5b50610117600480360381019061011291906124fa565b6105a4565b005b34801561012557600080fd5b50610140600480360381019061013b91906127e1565b610639565b005b61014a6109de565b005b34801561015857600080fd5b50610161610a96565b60405161016e9190612aad565b60405180910390f35b34801561018357600080fd5b5061019e60048036038101906101999190612acf565b610dcf565b005b3480156101ac57600080fd5b506101c760048036038101906101c291906124fa565b610fae565b6040516101d49190612cc6565b60405180910390f35b3480156101e957600080fd5b506101f261136d565b005b34801561020057600080fd5b50610209611382565b6040516102169190612f1f565b60405180910390f35b34801561022b57600080fd5b5061024660048036038101906102419190612f6d565b611768565b604051610257959493929190612f9a565b60405180910390f35b34801561026c57600080fd5b50610287600480360381019061028291906127e1565b611a46565b005b34801561029557600080fd5b5061029e611deb565b6040516102ab9190612f1f565b60405180910390f35b60066020528060005260406000206000915090508060000180546102d79061303f565b80601f01602080910402602001604051908101604052809291908181526020018280546103039061303f565b80156103505780601f1061032557610100808354040283529160200191610350565b820191906000526020600020905b81548152906001019060200180831161033357829003601f168201915b5050505050908060010180546103659061303f565b80601f01602080910402602001604051908101604052809291908181526020018280546103919061303f565b80156103de5780601f106103b3576101008083540402835291602001916103de565b820191906000526020600020905b8154815290600101906020018083116103c157829003601f168201915b5050505050908060020180546103f39061303f565b80601f016020809104026020016040519081016040528092919081815260200182805461041f9061303f565b801561046c5780601f106104415761010080835404028352916020019161046c565b820191906000526020600020905b81548152906001019060200180831161044f57829003601f168201915b5050505050908060030180546104819061303f565b80601f01602080910402602001604051908101604052809291908181526020018280546104ad9061303f565b80156104fa5780601f106104cf576101008083540402835291602001916104fa565b820191906000526020600020905b8154815290600101906020018083116104dd57829003601f168201915b50505050509080600401549080600501549080600601805461051b9061303f565b80601f01602080910402602001604051908101604052809291908181526020018280546105479061303f565b80156105945780601f1061056957610100808354040283529160200191610594565b820191906000526020600020905b81548152906001019060200180831161057757829003601f168201915b5050505050908060070154905088565b600060066000838152602001908152602001600020905080600801339080600181540180825580915050600190039060005260206000200160009091909190916101000a81548173ffffffffffffffffffffffffffffffffffffffff021916908373ffffffffffffffffffffffffffffffffffffffff1602179055506006600083815260200190815260200160002090505050565b600084888486856040516020016106549594939291906130cd565b60405160208183030381529060405280519060200120905060016040518061012001604052808a8152602001898152602001888152602001878152602001868152602001858152602001848152602001838152602001600580548060200260200160405190810160405280929190818152602001828054801561072c57602002820191906000526020600020905b8160009054906101000a900473ffffffffffffffffffffffffffffffffffffffff1673ffffffffffffffffffffffffffffffffffffffff16815260200190600101908083116106e2575b50505050508152509080600181540180825580915050600190039060005260206000209060090201600090919091909150600082015181600001908161077291906132cc565b50602082015181600101908161078891906132cc565b50604082015181600201908161079e91906132cc565b5060608201518160030190816107b491906132cc565b506080820151816004015560a0820151816005015560c08201518160060190816107de91906132cc565b5060e082015181600701556101008201518160080190805190602001906108069291906121d1565b50505060405180610120016040528089815260200188815260200187815260200186815260200185815260200184815260200183815260200182815260200160058054806020026020016040519081016040528092919081815260200182805480156108c757602002820191906000526020600020905b8160009054906101000a900473ffffffffffffffffffffffffffffffffffffffff1673ffffffffffffffffffffffffffffffffffffffff168152602001906001019080831161087d575b50505050508152506006600083815260200190815260200160002060008201518160000190816108f791906132cc565b50602082015181600101908161090d91906132cc565b50604082015181600201908161092391906132cc565b50606082015181600301908161093991906132cc565b506080820151816004015560a0820151816005015560c082015181600601908161096391906132cc565b5060e0820151816007015561010082015181600801908051906020019061098b9291906121d1565b509050507f5832205b89ffbe4930de0bc4b4436ad765dd3c85bf33c242ead040a7b1b34cae88888888888888886040516109cc9897969594939291906125df565b60405180910390a15050505050505050565b3373ffffffffffffffffffffffffffffffffffffffff1660008054906101000a900473ffffffffffffffffffffffffffffffffffffffff1673ffffffffffffffffffffffffffffffffffffffff1614610a3657600080fd5b60008054906101000a900473ffffffffffffffffffffffffffffffffffffffff1673ffffffffffffffffffffffffffffffffffffffff166108fc479081150290604051600060405180830381858888f19350505050610a9457600080fd5b565b60606004805480602002602001604051908101604052809291908181526020016000905b82821015610dc657838290600052602060002090600502016040518060a0016040529081600082018054610aed9061303f565b80601f0160208091040260200160405190810160405280929190818152602001828054610b199061303f565b8015610b665780601f10610b3b57610100808354040283529160200191610b66565b820191906000526020600020905b815481529060010190602001808311610b4957829003601f168201915b50505050508152602001600182018054610b7f9061303f565b80601f0160208091040260200160405190810160405280929190818152602001828054610bab9061303f565b8015610bf85780601f10610bcd57610100808354040283529160200191610bf8565b820191906000526020600020905b815481529060010190602001808311610bdb57829003601f168201915b50505050508152602001600282018054610c119061303f565b80601f0160208091040260200160405190810160405280929190818152602001828054610c3d9061303f565b8015610c8a5780601f10610c5f57610100808354040283529160200191610c8a565b820191906000526020600020905b815481529060010190602001808311610c6d57829003601f168201915b50505050508152602001600382018054610ca39061303f565b80601f0160208091040260200160405190810160405280929190818152602001828054610ccf9061303f565b8015610d1c5780601f10610cf157610100808354040283529160200191610d1c565b820191906000526020600020905b815481529060010190602001808311610cff57829003601f168201915b50505050508152602001600482018054610d359061303f565b80601f0160208091040260200160405190810160405280929190818152602001828054610d619061303f565b8015610dae5780601f10610d8357610100808354040283529160200191610dae565b820191906000526020600020905b815481529060010190602001808311610d9157829003601f168201915b50505050508152505081526020019060010190610aba565b50505050905090565b60046040518060a001604052808781526020018681526020018581526020018481526020018381525090806001815401808255809150506001900390600052602060002090600502016000909190919091506000820151816000019081610e3691906132cc565b506020820151816001019081610e4c91906132cc565b506040820151816002019081610e6291906132cc565b506060820151816003019081610e7891906132cc565b506080820151816004019081610e8e91906132cc565b5050506040518060a0016040528086815260200185815260200184815260200183815260200182815250600760003373ffffffffffffffffffffffffffffffffffffffff1673ffffffffffffffffffffffffffffffffffffffff1681526020019081526020016000206000820151816000019081610f0c91906132cc565b506020820151816001019081610f2291906132cc565b506040820151816002019081610f3891906132cc565b506060820151816003019081610f4e91906132cc565b506080820151816004019081610f6491906132cc565b509050507f122a6492c91b2a1dcf33e577f69f8df5e67fc80c1e8b371384c8a48528229a938585858585604051610f9f959493929190612f9a565b60405180910390a15050505050565b606060006006600084815260200190815260200160002060405180610120016040529081600082018054610fe19061303f565b80601f016020809104026020016040519081016040528092919081815260200182805461100d9061303f565b801561105a5780601f1061102f5761010080835404028352916020019161105a565b820191906000526020600020905b81548152906001019060200180831161103d57829003601f168201915b505050505081526020016001820180546110739061303f565b80601f016020809104026020016040519081016040528092919081815260200182805461109f9061303f565b80156110ec5780601f106110c1576101008083540402835291602001916110ec565b820191906000526020600020905b8154815290600101906020018083116110cf57829003601f168201915b505050505081526020016002820180546111059061303f565b80601f01602080910402602001604051908101604052809291908181526020018280546111319061303f565b801561117e5780601f106111535761010080835404028352916020019161117e565b820191906000526020600020905b81548152906001019060200180831161116157829003601f168201915b505050505081526020016003820180546111979061303f565b80601f01602080910402602001604051908101604052809291908181526020018280546111c39061303f565b80156112105780601f106111e557610100808354040283529160200191611210565b820191906000526020600020905b8154815290600101906020018083116111f357829003601f168201915b50505050508152602001600482015481526020016005820154815260200160068201805461123d9061303f565b80601f01602080910402602001604051908101604052809291908181526020018280546112699061303f565b80156112b65780601f1061128b576101008083540402835291602001916112b6565b820191906000526020600020905b81548152906001019060200180831161129957829003601f168201915b50505050508152602001600782015481526020016008820180548060200260200160405190810160405280929190818152602001828054801561134e57602002820191906000526020600020905b8160009054906101000a900473ffffffffffffffffffffffffffffffffffffffff1673ffffffffffffffffffffffffffffffffffffffff1681526020019060010190808311611304575b5050505050815250509050600081610100015190508092505050919050565b6003600290805461137f92919061225b565b50565b60606001805480602002602001604051908101604052809291908181526020016000905b8282101561175f5783829060005260206000209060090201604051806101200160405290816000820180546113da9061303f565b80601f01602080910402602001604051908101604052809291908181526020018280546114069061303f565b80156114535780601f1061142857610100808354040283529160200191611453565b820191906000526020600020905b81548152906001019060200180831161143657829003601f168201915b5050505050815260200160018201805461146c9061303f565b80601f01602080910402602001604051908101604052809291908181526020018280546114989061303f565b80156114e55780601f106114ba576101008083540402835291602001916114e5565b820191906000526020600020905b8154815290600101906020018083116114c857829003601f168201915b505050505081526020016002820180546114fe9061303f565b80601f016020809104026020016040519081016040528092919081815260200182805461152a9061303f565b80156115775780601f1061154c57610100808354040283529160200191611577565b820191906000526020600020905b81548152906001019060200180831161155a57829003601f168201915b505050505081526020016003820180546115909061303f565b80601f01602080910402602001604051908101604052809291908181526020018280546115bc9061303f565b80156116095780601f106115de57610100808354040283529160200191611609565b820191906000526020600020905b8154815290600101906020018083116115ec57829003601f168201915b5050505050815260200160048201548152602001600582015481526020016006820180546116369061303f565b80601f01602080910402602001604051908101604052809291908181526020018280546116629061303f565b80156116af5780601f10611684576101008083540402835291602001916116af565b820191906000526020600020905b81548152906001019060200180831161169257829003601f168201915b50505050508152602001600782015481526020016008820180548060200260200160405190810160405280929190818152602001828054801561174757602002820191906000526020600020905b8160009054906101000a900473ffffffffffffffffffffffffffffffffffffffff1673ffffffffffffffffffffffffffffffffffffffff16815260200190600101908083116116fd575b505050505081525050815260200190600101906113a6565b50505050905090565b600760205280600052604060002060009150905080600001805461178b9061303f565b80601f01602080910402602001604051908101604052809291908181526020018280546117b79061303f565b80156118045780601f106117d957610100808354040283529160200191611804565b820191906000526020600020905b8154815290600101906020018083116117e757829003601f168201915b5050505050908060010180546118199061303f565b80601f01602080910402602001604051908101604052809291908181526020018280546118459061303f565b80156118925780601f1061186757610100808354040283529160200191611892565b820191906000526020600020905b81548152906001019060200180831161187557829003601f168201915b5050505050908060020180546118a79061303f565b80601f01602080910402602001604051908101604052809291908181526020018280546118d39061303f565b80156119205780601f106118f557610100808354040283529160200191611920565b820191906000526020600020905b81548152906001019060200180831161190357829003601f168201915b5050505050908060030180546119359061303f565b80601f01602080910402602001604051908101604052809291908181526020018280546119619061303f565b80156119ae5780601f10611983576101008083540402835291602001916119ae565b820191906000526020600020905b81548152906001019060200180831161199157829003601f168201915b5050505050908060040180546119c39061303f565b80601f01602080910402602001604051908101604052809291908181526020018280546119ef9061303f565b8015611a3c5780601f10611a1157610100808354040283529160200191611a3c565b820191906000526020600020905b815481529060010190602001808311611a1f57829003601f168201915b5050505050905085565b60008488848685604051602001611a619594939291906130cd565b60405160208183030381529060405280519060200120905060026040518061012001604052808a81526020018981526020018881526020018781526020018681526020018581526020018481526020018381526020016005805480602002602001604051908101604052809291908181526020018280548015611b3957602002820191906000526020600020905b8160009054906101000a900473ffffffffffffffffffffffffffffffffffffffff1673ffffffffffffffffffffffffffffffffffffffff1681526020019060010190808311611aef575b505050505081525090806001815401808255809150506001900390600052602060002090600902016000909190919091506000820151816000019081611b7f91906132cc565b506020820151816001019081611b9591906132cc565b506040820151816002019081611bab91906132cc565b506060820151816003019081611bc191906132cc565b506080820151816004015560a0820151816005015560c0820151816006019081611beb91906132cc565b5060e08201518160070155610100820151816008019080519060200190611c139291906121d1565b5050506040518061012001604052808981526020018881526020018781526020018681526020018581526020018481526020018381526020018281526020016005805480602002602001604051908101604052809291908181526020018280548015611cd457602002820191906000526020600020905b8160009054906101000a900473ffffffffffffffffffffffffffffffffffffffff1673ffffffffffffffffffffffffffffffffffffffff1681526020019060010190808311611c8a575b5050505050815250600660008381526020019081526020016000206000820151816000019081611d0491906132cc565b506020820151816001019081611d1a91906132cc565b506040820151816002019081611d3091906132cc565b506060820151816003019081611d4691906132cc565b506080820151816004015560a0820151816005015560c0820151816006019081611d7091906132cc565b5060e08201518160070155610100820151816008019080519060200190611d989291906121d1565b509050507f5832205b89ffbe4930de0bc4b4436ad765dd3c85bf33c242ead040a7b1b34cae8888888888888888604051611dd99897969594939291906125df565b60405180910390a15050505050505050565b60606002805480602002602001604051908101604052809291908181526020016000905b828210156121c8578382906000526020600020906009020160405180610120016040529081600082018054611e439061303f565b80601f0160208091040260200160405190810160405280929190818152602001828054611e6f9061303f565b8015611ebc5780601f10611e9157610100808354040283529160200191611ebc565b820191906000526020600020905b815481529060010190602001808311611e9f57829003601f168201915b50505050508152602001600182018054611ed59061303f565b80601f0160208091040260200160405190810160405280929190818152602001828054611f019061303f565b8015611f4e5780601f10611f2357610100808354040283529160200191611f4e565b820191906000526020600020905b815481529060010190602001808311611f3157829003601f168201915b50505050508152602001600282018054611f679061303f565b80601f0160208091040260200160405190810160405280929190818152602001828054611f939061303f565b8015611fe05780601f10611fb557610100808354040283529160200191611fe0565b820191906000526020600020905b815481529060010190602001808311611fc357829003601f168201915b50505050508152602001600382018054611ff99061303f565b80601f01602080910402602001604051908101604052809291908181526020018280546120259061303f565b80156120725780601f1061204757610100808354040283529160200191612072565b820191906000526020600020905b81548152906001019060200180831161205557829003601f168201915b50505050508152602001600482015481526020016005820154815260200160068201805461209f9061303f565b80601f01602080910402602001604051908101604052809291908181526020018280546120cb9061303f565b80156121185780601f106120ed57610100808354040283529160200191612118565b820191906000526020600020905b8154815290600101906020018083116120fb57829003601f168201915b5050505050815260200160078201548152602001600882018054806020026020016040519081016040528092919081815260200182805480156121b057602002820191906000526020600020905b8160009054906101000a900473ffffffffffffffffffffffffffffffffffffffff1673ffffffffffffffffffffffffffffffffffffffff1681526020019060010190808311612166575b50505050508152505081526020019060010190611e0f565b50505050905090565b82805482825590600052602060002090810192821561224a579160200282015b828111156122495782518260006101000a81548173ffffffffffffffffffffffffffffffffffffffff021916908373ffffffffffffffffffffffffffffffffffffffff160217905550916020019190600101906121f1565b5b5090506122579190612351565b5090565b8280548282559060005260206000209060090281019282156123405760005260206000209160090282015b8281111561233f578282600082018160000190816122a491906133b4565b50600182018160010190816122b991906133b4565b50600282018160020190816122ce91906133b4565b50600382018160030190816122e391906133b4565b5060048201548160040155600582015481600501556006820181600601908161230c91906133b4565b5060078201548160070155600882018160080190805461232d92919061236e565b50505091600901919060090190612286565b5b50905061234d91906123c0565b5090565b5b8082111561236a576000816000905550600101612352565b5090565b8280548282559060005260206000209081019282156123af5760005260206000209182015b828111156123ae578254825591600101919060010190612393565b5b5090506123bc9190612351565b5090565b5b8082111561244b57600080820160006123da919061244f565b6001820160006123ea919061244f565b6002820160006123fa919061244f565b60038201600061240a919061244f565b6004820160009055600582016000905560068201600061242a919061244f565b6007820160009055600882016000612442919061248f565b506009016123c1565b5090565b50805461245b9061303f565b6000825580601f1061246d575061248c565b601f01602090049060005260206000209081019061248b9190612351565b5b50565b50805460008255906000526020600020908101906124ad9190612351565b50565b6000604051905090565b600080fd5b600080fd5b6000819050919050565b6124d7816124c4565b81146124e257600080fd5b50565b6000813590506124f4816124ce565b92915050565b6000602082840312156125105761250f6124ba565b5b600061251e848285016124e5565b91505092915050565b600081519050919050565b600082825260208201905092915050565b60005b83811015612561578082015181840152602081019050612546565b60008484015250505050565b6000601f19601f8301169050919050565b600061258982612527565b6125938185612532565b93506125a3818560208601612543565b6125ac8161256d565b840191505092915050565b6000819050919050565b6125ca816125b7565b82525050565b6125d9816124c4565b82525050565b60006101008201905081810360008301526125fa818b61257e565b9050818103602083015261260e818a61257e565b90508181036040830152612622818961257e565b90508181036060830152612636818861257e565b905061264560808301876125c1565b61265260a08301866125c1565b81810360c0830152612664818561257e565b905061267360e08301846125d0565b9998505050505050505050565b600080fd5b600080fd5b7f4e487b7100000000000000000000000000000000000000000000000000000000600052604160045260246000fd5b6126c28261256d565b810181811067ffffffffffffffff821117156126e1576126e061268a565b5b80604052505050565b60006126f46124b0565b905061270082826126b9565b919050565b600067ffffffffffffffff8211156127205761271f61268a565b5b6127298261256d565b9050602081019050919050565b82818337600083830152505050565b600061275861275384612705565b6126ea565b90508281526020810184848401111561277457612773612685565b5b61277f848285612736565b509392505050565b600082601f83011261279c5761279b612680565b5b81356127ac848260208601612745565b91505092915050565b6127be816125b7565b81146127c957600080fd5b50565b6000813590506127db816127b5565b92915050565b600080600080600080600060e0888a031215612800576127ff6124ba565b5b600088013567ffffffffffffffff81111561281e5761281d6124bf565b5b61282a8a828b01612787565b975050602088013567ffffffffffffffff81111561284b5761284a6124bf565b5b6128578a828b01612787565b965050604088013567ffffffffffffffff811115612878576128776124bf565b5b6128848a828b01612787565b955050606088013567ffffffffffffffff8111156128a5576128a46124bf565b5b6128b18a828b01612787565b94505060806128c28a828b016127cc565b93505060a06128d38a828b016127cc565b92505060c088013567ffffffffffffffff8111156128f4576128f36124bf565b5b6129008a828b01612787565b91505092959891949750929550565b600081519050919050565b600082825260208201905092915050565b6000819050602082019050919050565b600082825260208201905092915050565b600061295782612527565b612961818561293b565b9350612971818560208601612543565b61297a8161256d565b840191505092915050565b600060a08301600083015184820360008601526129a2828261294c565b915050602083015184820360208601526129bc828261294c565b915050604083015184820360408601526129d6828261294c565b915050606083015184820360608601526129f0828261294c565b91505060808301518482036080860152612a0a828261294c565b9150508091505092915050565b6000612a238383612985565b905092915050565b6000602082019050919050565b6000612a438261290f565b612a4d818561291a565b935083602082028501612a5f8561292b565b8060005b85811015612a9b5784840389528151612a7c8582612a17565b9450612a8783612a2b565b925060208a01995050600181019050612a63565b50829750879550505050505092915050565b60006020820190508181036000830152612ac78184612a38565b905092915050565b600080600080600060a08688031215612aeb57612aea6124ba565b5b600086013567ffffffffffffffff811115612b0957612b086124bf565b5b612b1588828901612787565b955050602086013567ffffffffffffffff811115612b3657612b356124bf565b5b612b4288828901612787565b945050604086013567ffffffffffffffff811115612b6357612b626124bf565b5b612b6f88828901612787565b935050606086013567ffffffffffffffff811115612b9057612b8f6124bf565b5b612b9c88828901612787565b925050608086013567ffffffffffffffff811115612bbd57612bbc6124bf565b5b612bc988828901612787565b9150509295509295909350565b600081519050919050565b600082825260208201905092915050565b6000819050602082019050919050565b600073ffffffffffffffffffffffffffffffffffffffff82169050919050565b6000612c2d82612c02565b9050919050565b612c3d81612c22565b82525050565b6000612c4f8383612c34565b60208301905092915050565b6000602082019050919050565b6000612c7382612bd6565b612c7d8185612be1565b9350612c8883612bf2565b8060005b83811015612cb9578151612ca08882612c43565b9750612cab83612c5b565b925050600181019050612c8c565b5085935050505092915050565b60006020820190508181036000830152612ce08184612c68565b905092915050565b600081519050919050565b600082825260208201905092915050565b6000819050602082019050919050565b612d1d816125b7565b82525050565b612d2c816124c4565b82525050565b600082825260208201905092915050565b6000612d4e82612bd6565b612d588185612d32565b9350612d6383612bf2565b8060005b83811015612d94578151612d7b8882612c43565b9750612d8683612c5b565b925050600181019050612d67565b5085935050505092915050565b6000610120830160008301518482036000860152612dbf828261294c565b91505060208301518482036020860152612dd9828261294c565b91505060408301518482036040860152612df3828261294c565b91505060608301518482036060860152612e0d828261294c565b9150506080830151612e226080860182612d14565b5060a0830151612e3560a0860182612d14565b5060c083015184820360c0860152612e4d828261294c565b91505060e0830151612e6260e0860182612d23565b50610100830151848203610100860152612e7c8282612d43565b9150508091505092915050565b6000612e958383612da1565b905092915050565b6000602082019050919050565b6000612eb582612ce8565b612ebf8185612cf3565b935083602082028501612ed185612d04565b8060005b85811015612f0d5784840389528151612eee8582612e89565b9450612ef983612e9d565b925060208a01995050600181019050612ed5565b50829750879550505050505092915050565b60006020820190508181036000830152612f398184612eaa565b905092915050565b612f4a81612c22565b8114612f5557600080fd5b50565b600081359050612f6781612f41565b92915050565b600060208284031215612f8357612f826124ba565b5b6000612f9184828501612f58565b91505092915050565b600060a0820190508181036000830152612fb4818861257e565b90508181036020830152612fc8818761257e565b90508181036040830152612fdc818661257e565b90508181036060830152612ff0818561257e565b90508181036080830152613004818461257e565b90509695505050505050565b7f4e487b7100000000000000000000000000000000000000000000000000000000600052602260045260246000fd5b6000600282049050600182168061305757607f821691505b60208210810361306a57613069613010565b5b50919050565b600081905092915050565b600061308682612527565b6130908185613070565b93506130a0818560208601612543565b80840191505092915050565b6000819050919050565b6130c76130c2826125b7565b6130ac565b82525050565b60006130d9828861307b565b91506130e5828761307b565b91506130f182866130b6565b60208201915061310182856130b6565b602082019150613111828461307b565b91508190509695505050505050565b60008190508160005260206000209050919050565b60006020601f8301049050919050565b600082821b905092915050565b6000600883026131827fffffffffffffffffffffffffffffffffffffffffffffffffffffffffffffffff82613145565b61318c8683613145565b95508019841693508086168417925050509392505050565b6000819050919050565b60006131c96131c46131bf846125b7565b6131a4565b6125b7565b9050919050565b6000819050919050565b6131e3836131ae565b6131f76131ef826131d0565b848454613152565b825550505050565b600090565b61320c6131ff565b6132178184846131da565b505050565b5b8181101561323b57613230600082613204565b60018101905061321d565b5050565b601f8211156132805761325181613120565b61325a84613135565b81016020851015613269578190505b61327d61327585613135565b83018261321c565b50505b505050565b600082821c905092915050565b60006132a360001984600802613285565b1980831691505092915050565b60006132bc8383613292565b9150826002028217905092915050565b6132d582612527565b67ffffffffffffffff8111156132ee576132ed61268a565b5b6132f8825461303f565b61330382828561323f565b600060209050601f8311600181146133365760008415613324578287015190505b61332e85826132b0565b865550613396565b601f19841661334486613120565b60005b8281101561336c57848901518255600182019150602085019450602081019050613347565b868310156133895784890151613385601f891682613292565b8355505b6001600288020188555050505b505050505050565b6000815490506133ad8161303f565b9050919050565b8181036133c257505061349a565b6133cb8261339e565b67ffffffffffffffff8111156133e4576133e361268a565b5b6133ee825461303f565b6133f982828561323f565b6000601f8311600181146134285760008415613416578287015490505b61342085826132b0565b865550613493565b601f19841661343687613120565b965061344186613120565b60005b8281101561346957848901548255600182019150600185019450602081019050613444565b868310156134865784890154613482601f891682613292565b8355505b6001600288020188555050505b5050505050505b56fea2646970667358221220db406ffa577b58824834e5518b1385f5528c4b58fa17974e732da8f904baaebc64736f6c63430008110033",
  "linkReferences": {},
  "deployedLinkReferences": {}
}