{
  "_format": "hh-sol-artifact-1",
  "contractName": "jobsWeb3",
  "sourceName": "contracts/jobsWeb3.sol",
  "abi": [
    {
      "inputs": [],
      "stateMutability": "nonpayable",
      "type": "constructor"
    },
    {
      "anonymous": false,
      "inputs": [
        {
          "indexed": false,
          "internalType": "string",
          "name": "MarketStall",
          "type": "string"
        },
        {
          "indexed": false,
          "internalType": "string",
          "name": "business",
          "type": "string"
        },
        {
          "indexed": false,
          "internalType": "string",
          "name": "country",
          "type": "string"
        },
        {
          "indexed": false,
          "internalType": "string",
          "name": "description",
          "type": "string"
        },
        {
          "indexed": false,
          "internalType": "uint256",
          "name": "vacancies",
          "type": "uint256"
        },
        {
          "indexed": false,
          "internalType": "uint256",
          "name": "salary",
          "type": "uint256"
        },
        {
          "indexed": false,
          "internalType": "string",
          "name": "Contact",
          "type": "string"
        },
        {
          "indexed": false,
          "internalType": "bytes32",
          "name": "id",
          "type": "bytes32"
        }
      ],
      "name": "newJob",
      "type": "event"
    },
    {
      "anonymous": false,
      "inputs": [
        {
          "indexed": false,
          "internalType": "string",
          "name": "name",
          "type": "string"
        },
        {
          "indexed": false,
          "internalType": "string",
          "name": "surname",
          "type": "string"
        },
        {
          "indexed": false,
          "internalType": "string",
          "name": "presentationLetter",
          "type": "string"
        },
        {
          "indexed": false,
          "internalType": "string",
          "name": "portfolio",
          "type": "string"
        },
        {
          "indexed": false,
          "internalType": "string",
          "name": "linkedin",
          "type": "string"
        }
      ],
      "name": "newProfesional",
      "type": "event"
    },
    {
      "inputs": [
        {
          "internalType": "string",
          "name": "_MarketStall",
          "type": "string"
        },
        {
          "internalType": "string",
          "name": "_business",
          "type": "string"
        },
        {
          "internalType": "string",
          "name": "_country",
          "type": "string"
        },
        {
          "internalType": "string",
          "name": "_description",
          "type": "string"
        },
        {
          "internalType": "uint256",
          "name": "_vacancies",
          "type": "uint256"
        },
        {
          "internalType": "uint256",
          "name": "_salary",
          "type": "uint256"
        },
        {
          "internalType": "string",
          "name": "_Contact",
          "type": "string"
        }
      ],
      "name": "postWork",
      "outputs": [],
      "stateMutability": "payable",
      "type": "function"
    },
    {
      "inputs": [
        {
          "internalType": "string",
          "name": "_MarketStall",
          "type": "string"
        },
        {
          "internalType": "string",
          "name": "_business",
          "type": "string"
        },
        {
          "internalType": "string",
          "name": "_country",
          "type": "string"
        },
        {
          "internalType": "string",
          "name": "_description",
          "type": "string"
        },
        {
          "internalType": "uint256",
          "name": "_vacancies",
          "type": "uint256"
        },
        {
          "internalType": "uint256",
          "name": "_salary",
          "type": "uint256"
        },
        {
          "internalType": "string",
          "name": "_Contact",
          "type": "string"
        }
      ],
      "name": "postWorkPremium",
      "outputs": [],
      "stateMutability": "payable",
      "type": "function"
    },
    {
      "inputs": [
        {
          "internalType": "string",
          "name": "_name",
          "type": "string"
        },
        {
          "internalType": "string",
          "name": "_surname",
          "type": "string"
        },
        {
          "internalType": "string",
          "name": "_presentationLetter",
          "type": "string"
        },
        {
          "internalType": "string",
          "name": "_portfolio",
          "type": "string"
        },
        {
          "internalType": "string",
          "name": "_linkedin",
          "type": "string"
        },
        {
          "internalType": "bytes32",
          "name": "_ID",
          "type": "bytes32"
        }
      ],
      "name": "postulate",
      "outputs": [],
      "stateMutability": "nonpayable",
      "type": "function"
    },
    {
      "inputs": [],
      "name": "restarting",
      "outputs": [],
      "stateMutability": "nonpayable",
      "type": "function"
    },
    {
      "inputs": [],
      "name": "returnProfesionales",
      "outputs": [
        {
          "components": [
            {
              "internalType": "string",
              "name": "name",
              "type": "string"
            },
            {
              "internalType": "string",
              "name": "surname",
              "type": "string"
            },
            {
              "internalType": "string",
              "name": "presentationLetter",
              "type": "string"
            },
            {
              "internalType": "string",
              "name": "portfolio",
              "type": "string"
            },
            {
              "internalType": "string",
              "name": "linkedin",
              "type": "string"
            }
          ],
          "internalType": "struct jobsWeb3.profesional[]",
          "name": "",
          "type": "tuple[]"
        }
      ],
      "stateMutability": "view",
      "type": "function"
    },
    {
      "inputs": [],
      "name": "returnjobs",
      "outputs": [
        {
          "components": [
            {
              "internalType": "string",
              "name": "MarketStall",
              "type": "string"
            },
            {
              "internalType": "string",
              "name": "business",
              "type": "string"
            },
            {
              "internalType": "string",
              "name": "country",
              "type": "string"
            },
            {
              "internalType": "string",
              "name": "description",
              "type": "string"
            },
            {
              "internalType": "uint256",
              "name": "vacancies",
              "type": "uint256"
            },
            {
              "internalType": "uint256",
              "name": "salary",
              "type": "uint256"
            },
            {
              "internalType": "string",
              "name": "Contact",
              "type": "string"
            },
            {
              "internalType": "bytes32",
              "name": "id",
              "type": "bytes32"
            },
            {
              "internalType": "address[]",
              "name": "applicants",
              "type": "address[]"
            }
          ],
          "internalType": "struct jobsWeb3.work[]",
          "name": "",
          "type": "tuple[]"
        }
      ],
      "stateMutability": "view",
      "type": "function"
    },
    {
      "inputs": [],
      "name": "returnjobsPremium",
      "outputs": [
        {
          "components": [
            {
              "internalType": "string",
              "name": "MarketStall",
              "type": "string"
            },
            {
              "internalType": "string",
              "name": "business",
              "type": "string"
            },
            {
              "internalType": "string",
              "name": "country",
              "type": "string"
            },
            {
              "internalType": "string",
              "name": "description",
              "type": "string"
            },
            {
              "internalType": "uint256",
              "name": "vacancies",
              "type": "uint256"
            },
            {
              "internalType": "uint256",
              "name": "salary",
              "type": "uint256"
            },
            {
              "internalType": "string",
              "name": "Contact",
              "type": "string"
            },
            {
              "internalType": "bytes32",
              "name": "id",
              "type": "bytes32"
            },
            {
              "internalType": "address[]",
              "name": "applicants",
              "type": "address[]"
            }
          ],
          "internalType": "struct jobsWeb3.work[]",
          "name": "",
          "type": "tuple[]"
        }
      ],
      "stateMutability": "view",
      "type": "function"
    },
    {
      "inputs": [
        {
          "internalType": "bytes32",
          "name": "_id",
          "type": "bytes32"
        }
      ],
      "name": "returnpostulant",
      "outputs": [
        {
          "internalType": "address[]",
          "name": "",
          "type": "address[]"
        }
      ],
      "stateMutability": "view",
      "type": "function"
    },
    {
      "inputs": [
        {
          "internalType": "address",
          "name": "",
          "type": "address"
        }
      ],
      "name": "seeProfesionales",
      "outputs": [
        {
          "internalType": "string",
          "name": "name",
          "type": "string"
        },
        {
          "internalType": "string",
          "name": "surname",
          "type": "string"
        },
        {
          "internalType": "string",
          "name": "presentationLetter",
          "type": "string"
        },
        {
          "internalType": "string",
          "name": "portfolio",
          "type": "string"
        },
        {
          "internalType": "string",
          "name": "linkedin",
          "type": "string"
        }
      ],
      "stateMutability": "view",
      "type": "function"
    },
    {
      "inputs": [
        {
          "internalType": "bytes32",
          "name": "",
          "type": "bytes32"
        }
      ],
      "name": "seeWork",
      "outputs": [
        {
          "internalType": "string",
          "name": "MarketStall",
          "type": "string"
        },
        {
          "internalType": "string",
          "name": "business",
          "type": "string"
        },
        {
          "internalType": "string",
          "name": "country",
          "type": "string"
        },
        {
          "internalType": "string",
          "name": "description",
          "type": "string"
        },
        {
          "internalType": "uint256",
          "name": "vacancies",
          "type": "uint256"
        },
        {
          "internalType": "uint256",
          "name": "salary",
          "type": "uint256"
        },
        {
          "internalType": "string",
          "name": "Contact",
          "type": "string"
        },
        {
          "internalType": "bytes32",
          "name": "id",
          "type": "bytes32"
        }
      ],
      "stateMutability": "view",
      "type": "function"
    },
    {
      "inputs": [],
      "name": "withdraw",
      "outputs": [],
      "stateMutability": "payable",
      "type": "function"
    }
  ],
  "bytecode": "0x608060405234801561001057600080fd5b50336000806101000a81548173ffffffffffffffffffffffffffffffffffffffff021916908373ffffffffffffffffffffffffffffffffffffffff160217905550613494806100606000396000f3fe60806040526004361061009c5760003560e01c806395f90eb81161006457806395f90eb81461015f578063ab2394fb1461019c578063acf9dbb2146101b3578063af052e53146101de578063d5992da81461021f578063e6e2c4d81461023b5761009c565b806307b7c255146100a15780631d030606146100e557806322eb79831461010e5780633ccfd60b1461012a57806367f9be0d14610134575b600080fd5b3480156100ad57600080fd5b506100c860048036038101906100c391906124aa565b610266565b6040516100dc98979695949392919061258f565b60405180910390f35b3480156100f157600080fd5b5061010c60048036038101906101079190612765565b610556565b005b610128600480360381019061012391906128aa565b6107c8565b005b610132610b6d565b005b34801561014057600080fd5b50610149610c25565b6040516101569190612b76565b60405180910390f35b34801561016b57600080fd5b50610186600480360381019061018191906124aa565b610f5e565b6040516101939190612c88565b60405180910390f35b3480156101a857600080fd5b506101b161131d565b005b3480156101bf57600080fd5b506101c8611332565b6040516101d59190612ee1565b60405180910390f35b3480156101ea57600080fd5b5061020560048036038101906102009190612f2f565b611718565b604051610216959493929190612f5c565b60405180910390f35b610239600480360381019061023491906128aa565b6119f6565b005b34801561024757600080fd5b50610250611d9b565b60405161025d9190612ee1565b60405180910390f35b600660205280600052604060002060009150905080600001805461028990613001565b80601f01602080910402602001604051908101604052809291908181526020018280546102b590613001565b80156103025780601f106102d757610100808354040283529160200191610302565b820191906000526020600020905b8154815290600101906020018083116102e557829003601f168201915b50505050509080600101805461031790613001565b80601f016020809104026020016040519081016040528092919081815260200182805461034390613001565b80156103905780601f1061036557610100808354040283529160200191610390565b820191906000526020600020905b81548152906001019060200180831161037357829003601f168201915b5050505050908060020180546103a590613001565b80601f01602080910402602001604051908101604052809291908181526020018280546103d190613001565b801561041e5780601f106103f35761010080835404028352916020019161041e565b820191906000526020600020905b81548152906001019060200180831161040157829003601f168201915b50505050509080600301805461043390613001565b80601f016020809104026020016040519081016040528092919081815260200182805461045f90613001565b80156104ac5780601f10610481576101008083540402835291602001916104ac565b820191906000526020600020905b81548152906001019060200180831161048f57829003601f168201915b5050505050908060040154908060050154908060060180546104cd90613001565b80601f01602080910402602001604051908101604052809291908181526020018280546104f990613001565b80156105465780601f1061051b57610100808354040283529160200191610546565b820191906000526020600020905b81548152906001019060200180831161052957829003601f168201915b5050505050908060070154905088565b600060066000838152602001908152602001600020905080600801339080600181540180825580915050600190039060005260206000200160009091909190916101000a81548173ffffffffffffffffffffffffffffffffffffffff021916908373ffffffffffffffffffffffffffffffffffffffff16021790555060066000838152602001908152602001600020905060046040518060a00160405280898152602001888152602001878152602001868152602001858152509080600181540180825580915050600190039060005260206000209060050201600090919091909150600082015181600001908161064e91906131de565b50602082015181600101908161066491906131de565b50604082015181600201908161067a91906131de565b50606082015181600301908161069091906131de565b5060808201518160040190816106a691906131de565b5050506040518060a0016040528088815260200187815260200186815260200185815260200184815250600760003373ffffffffffffffffffffffffffffffffffffffff1673ffffffffffffffffffffffffffffffffffffffff168152602001908152602001600020600082015181600001908161072491906131de565b50602082015181600101908161073a91906131de565b50604082015181600201908161075091906131de565b50606082015181600301908161076691906131de565b50608082015181600401908161077c91906131de565b509050507f122a6492c91b2a1dcf33e577f69f8df5e67fc80c1e8b371384c8a48528229a9387878787876040516107b7959493929190612f5c565b60405180910390a150505050505050565b600084888486856040516020016107e395949392919061330d565b60405160208183030381529060405280519060200120905060016040518061012001604052808a815260200189815260200188815260200187815260200186815260200185815260200184815260200183815260200160058054806020026020016040519081016040528092919081815260200182805480156108bb57602002820191906000526020600020905b8160009054906101000a900473ffffffffffffffffffffffffffffffffffffffff1673ffffffffffffffffffffffffffffffffffffffff1681526020019060010190808311610871575b50505050508152509080600181540180825580915050600190039060005260206000209060090201600090919091909150600082015181600001908161090191906131de565b50602082015181600101908161091791906131de565b50604082015181600201908161092d91906131de565b50606082015181600301908161094391906131de565b506080820151816004015560a0820151816005015560c082015181600601908161096d91906131de565b5060e08201518160070155610100820151816008019080519060200190610995929190612181565b5050506040518061012001604052808981526020018881526020018781526020018681526020018581526020018481526020018381526020018281526020016005805480602002602001604051908101604052809291908181526020018280548015610a5657602002820191906000526020600020905b8160009054906101000a900473ffffffffffffffffffffffffffffffffffffffff1673ffffffffffffffffffffffffffffffffffffffff1681526020019060010190808311610a0c575b5050505050815250600660008381526020019081526020016000206000820151816000019081610a8691906131de565b506020820151816001019081610a9c91906131de565b506040820151816002019081610ab291906131de565b506060820151816003019081610ac891906131de565b506080820151816004015560a0820151816005015560c0820151816006019081610af291906131de565b5060e08201518160070155610100820151816008019080519060200190610b1a929190612181565b509050507f5832205b89ffbe4930de0bc4b4436ad765dd3c85bf33c242ead040a7b1b34cae8888888888888888604051610b5b98979695949392919061258f565b60405180910390a15050505050505050565b3373ffffffffffffffffffffffffffffffffffffffff1660008054906101000a900473ffffffffffffffffffffffffffffffffffffffff1673ffffffffffffffffffffffffffffffffffffffff1614610bc557600080fd5b60008054906101000a900473ffffffffffffffffffffffffffffffffffffffff1673ffffffffffffffffffffffffffffffffffffffff166108fc479081150290604051600060405180830381858888f19350505050610c2357600080fd5b565b60606004805480602002602001604051908101604052809291908181526020016000905b82821015610f5557838290600052602060002090600502016040518060a0016040529081600082018054610c7c90613001565b80601f0160208091040260200160405190810160405280929190818152602001828054610ca890613001565b8015610cf55780601f10610cca57610100808354040283529160200191610cf5565b820191906000526020600020905b815481529060010190602001808311610cd857829003601f168201915b50505050508152602001600182018054610d0e90613001565b80601f0160208091040260200160405190810160405280929190818152602001828054610d3a90613001565b8015610d875780601f10610d5c57610100808354040283529160200191610d87565b820191906000526020600020905b815481529060010190602001808311610d6a57829003601f168201915b50505050508152602001600282018054610da090613001565b80601f0160208091040260200160405190810160405280929190818152602001828054610dcc90613001565b8015610e195780601f10610dee57610100808354040283529160200191610e19565b820191906000526020600020905b815481529060010190602001808311610dfc57829003601f168201915b50505050508152602001600382018054610e3290613001565b80601f0160208091040260200160405190810160405280929190818152602001828054610e5e90613001565b8015610eab5780601f10610e8057610100808354040283529160200191610eab565b820191906000526020600020905b815481529060010190602001808311610e8e57829003601f168201915b50505050508152602001600482018054610ec490613001565b80601f0160208091040260200160405190810160405280929190818152602001828054610ef090613001565b8015610f3d5780601f10610f1257610100808354040283529160200191610f3d565b820191906000526020600020905b815481529060010190602001808311610f2057829003601f168201915b50505050508152505081526020019060010190610c49565b50505050905090565b606060006006600084815260200190815260200160002060405180610120016040529081600082018054610f9190613001565b80601f0160208091040260200160405190810160405280929190818152602001828054610fbd90613001565b801561100a5780601f10610fdf5761010080835404028352916020019161100a565b820191906000526020600020905b815481529060010190602001808311610fed57829003601f168201915b5050505050815260200160018201805461102390613001565b80601f016020809104026020016040519081016040528092919081815260200182805461104f90613001565b801561109c5780601f106110715761010080835404028352916020019161109c565b820191906000526020600020905b81548152906001019060200180831161107f57829003601f168201915b505050505081526020016002820180546110b590613001565b80601f01602080910402602001604051908101604052809291908181526020018280546110e190613001565b801561112e5780601f106111035761010080835404028352916020019161112e565b820191906000526020600020905b81548152906001019060200180831161111157829003601f168201915b5050505050815260200160038201805461114790613001565b80601f016020809104026020016040519081016040528092919081815260200182805461117390613001565b80156111c05780601f10611195576101008083540402835291602001916111c0565b820191906000526020600020905b8154815290600101906020018083116111a357829003601f168201915b5050505050815260200160048201548152602001600582015481526020016006820180546111ed90613001565b80601f016020809104026020016040519081016040528092919081815260200182805461121990613001565b80156112665780601f1061123b57610100808354040283529160200191611266565b820191906000526020600020905b81548152906001019060200180831161124957829003601f168201915b5050505050815260200160078201548152602001600882018054806020026020016040519081016040528092919081815260200182805480156112fe57602002820191906000526020600020905b8160009054906101000a900473ffffffffffffffffffffffffffffffffffffffff1673ffffffffffffffffffffffffffffffffffffffff16815260200190600101908083116112b4575b5050505050815250509050600081610100015190508092505050919050565b6003600290805461132f92919061220b565b50565b60606001805480602002602001604051908101604052809291908181526020016000905b8282101561170f57838290600052602060002090600902016040518061012001604052908160008201805461138a90613001565b80601f01602080910402602001604051908101604052809291908181526020018280546113b690613001565b80156114035780601f106113d857610100808354040283529160200191611403565b820191906000526020600020905b8154815290600101906020018083116113e657829003601f168201915b5050505050815260200160018201805461141c90613001565b80601f016020809104026020016040519081016040528092919081815260200182805461144890613001565b80156114955780601f1061146a57610100808354040283529160200191611495565b820191906000526020600020905b81548152906001019060200180831161147857829003601f168201915b505050505081526020016002820180546114ae90613001565b80601f01602080910402602001604051908101604052809291908181526020018280546114da90613001565b80156115275780601f106114fc57610100808354040283529160200191611527565b820191906000526020600020905b81548152906001019060200180831161150a57829003601f168201915b5050505050815260200160038201805461154090613001565b80601f016020809104026020016040519081016040528092919081815260200182805461156c90613001565b80156115b95780601f1061158e576101008083540402835291602001916115b9565b820191906000526020600020905b81548152906001019060200180831161159c57829003601f168201915b5050505050815260200160048201548152602001600582015481526020016006820180546115e690613001565b80601f016020809104026020016040519081016040528092919081815260200182805461161290613001565b801561165f5780601f106116345761010080835404028352916020019161165f565b820191906000526020600020905b81548152906001019060200180831161164257829003601f168201915b5050505050815260200160078201548152602001600882018054806020026020016040519081016040528092919081815260200182805480156116f757602002820191906000526020600020905b8160009054906101000a900473ffffffffffffffffffffffffffffffffffffffff1673ffffffffffffffffffffffffffffffffffffffff16815260200190600101908083116116ad575b50505050508152505081526020019060010190611356565b50505050905090565b600760205280600052604060002060009150905080600001805461173b90613001565b80601f016020809104026020016040519081016040528092919081815260200182805461176790613001565b80156117b45780601f10611789576101008083540402835291602001916117b4565b820191906000526020600020905b81548152906001019060200180831161179757829003601f168201915b5050505050908060010180546117c990613001565b80601f01602080910402602001604051908101604052809291908181526020018280546117f590613001565b80156118425780601f1061181757610100808354040283529160200191611842565b820191906000526020600020905b81548152906001019060200180831161182557829003601f168201915b50505050509080600201805461185790613001565b80601f016020809104026020016040519081016040528092919081815260200182805461188390613001565b80156118d05780601f106118a5576101008083540402835291602001916118d0565b820191906000526020600020905b8154815290600101906020018083116118b357829003601f168201915b5050505050908060030180546118e590613001565b80601f016020809104026020016040519081016040528092919081815260200182805461191190613001565b801561195e5780601f106119335761010080835404028352916020019161195e565b820191906000526020600020905b81548152906001019060200180831161194157829003601f168201915b50505050509080600401805461197390613001565b80601f016020809104026020016040519081016040528092919081815260200182805461199f90613001565b80156119ec5780601f106119c1576101008083540402835291602001916119ec565b820191906000526020600020905b8154815290600101906020018083116119cf57829003601f168201915b5050505050905085565b60008488848685604051602001611a1195949392919061330d565b60405160208183030381529060405280519060200120905060026040518061012001604052808a81526020018981526020018881526020018781526020018681526020018581526020018481526020018381526020016005805480602002602001604051908101604052809291908181526020018280548015611ae957602002820191906000526020600020905b8160009054906101000a900473ffffffffffffffffffffffffffffffffffffffff1673ffffffffffffffffffffffffffffffffffffffff1681526020019060010190808311611a9f575b505050505081525090806001815401808255809150506001900390600052602060002090600902016000909190919091506000820151816000019081611b2f91906131de565b506020820151816001019081611b4591906131de565b506040820151816002019081611b5b91906131de565b506060820151816003019081611b7191906131de565b506080820151816004015560a0820151816005015560c0820151816006019081611b9b91906131de565b5060e08201518160070155610100820151816008019080519060200190611bc3929190612181565b5050506040518061012001604052808981526020018881526020018781526020018681526020018581526020018481526020018381526020018281526020016005805480602002602001604051908101604052809291908181526020018280548015611c8457602002820191906000526020600020905b8160009054906101000a900473ffffffffffffffffffffffffffffffffffffffff1673ffffffffffffffffffffffffffffffffffffffff1681526020019060010190808311611c3a575b5050505050815250600660008381526020019081526020016000206000820151816000019081611cb491906131de565b506020820151816001019081611cca91906131de565b506040820151816002019081611ce091906131de565b506060820151816003019081611cf691906131de565b506080820151816004015560a0820151816005015560c0820151816006019081611d2091906131de565b5060e08201518160070155610100820151816008019080519060200190611d48929190612181565b509050507f5832205b89ffbe4930de0bc4b4436ad765dd3c85bf33c242ead040a7b1b34cae8888888888888888604051611d8998979695949392919061258f565b60405180910390a15050505050505050565b60606002805480602002602001604051908101604052809291908181526020016000905b82821015612178578382906000526020600020906009020160405180610120016040529081600082018054611df390613001565b80601f0160208091040260200160405190810160405280929190818152602001828054611e1f90613001565b8015611e6c5780601f10611e4157610100808354040283529160200191611e6c565b820191906000526020600020905b815481529060010190602001808311611e4f57829003601f168201915b50505050508152602001600182018054611e8590613001565b80601f0160208091040260200160405190810160405280929190818152602001828054611eb190613001565b8015611efe5780601f10611ed357610100808354040283529160200191611efe565b820191906000526020600020905b815481529060010190602001808311611ee157829003601f168201915b50505050508152602001600282018054611f1790613001565b80601f0160208091040260200160405190810160405280929190818152602001828054611f4390613001565b8015611f905780601f10611f6557610100808354040283529160200191611f90565b820191906000526020600020905b815481529060010190602001808311611f7357829003601f168201915b50505050508152602001600382018054611fa990613001565b80601f0160208091040260200160405190810160405280929190818152602001828054611fd590613001565b80156120225780601f10611ff757610100808354040283529160200191612022565b820191906000526020600020905b81548152906001019060200180831161200557829003601f168201915b50505050508152602001600482015481526020016005820154815260200160068201805461204f90613001565b80601f016020809104026020016040519081016040528092919081815260200182805461207b90613001565b80156120c85780601f1061209d576101008083540402835291602001916120c8565b820191906000526020600020905b8154815290600101906020018083116120ab57829003601f168201915b50505050508152602001600782015481526020016008820180548060200260200160405190810160405280929190818152602001828054801561216057602002820191906000526020600020905b8160009054906101000a900473ffffffffffffffffffffffffffffffffffffffff1673ffffffffffffffffffffffffffffffffffffffff1681526020019060010190808311612116575b50505050508152505081526020019060010190611dbf565b50505050905090565b8280548282559060005260206000209081019282156121fa579160200282015b828111156121f95782518260006101000a81548173ffffffffffffffffffffffffffffffffffffffff021916908373ffffffffffffffffffffffffffffffffffffffff160217905550916020019190600101906121a1565b5b5090506122079190612301565b5090565b8280548282559060005260206000209060090281019282156122f05760005260206000209160090282015b828111156122ef578282600082018160000190816122549190613376565b50600182018160010190816122699190613376565b506002820181600201908161227e9190613376565b50600382018160030190816122939190613376565b506004820154816004015560058201548160050155600682018160060190816122bc9190613376565b506007820154816007015560088201816008019080546122dd92919061231e565b50505091600901919060090190612236565b5b5090506122fd9190612370565b5090565b5b8082111561231a576000816000905550600101612302565b5090565b82805482825590600052602060002090810192821561235f5760005260206000209182015b8281111561235e578254825591600101919060010190612343565b5b50905061236c9190612301565b5090565b5b808211156123fb576000808201600061238a91906123ff565b60018201600061239a91906123ff565b6002820160006123aa91906123ff565b6003820160006123ba91906123ff565b600482016000905560058201600090556006820160006123da91906123ff565b60078201600090556008820160006123f2919061243f565b50600901612371565b5090565b50805461240b90613001565b6000825580601f1061241d575061243c565b601f01602090049060005260206000209081019061243b9190612301565b5b50565b508054600082559060005260206000209081019061245d9190612301565b50565b6000604051905090565b600080fd5b600080fd5b6000819050919050565b61248781612474565b811461249257600080fd5b50565b6000813590506124a48161247e565b92915050565b6000602082840312156124c0576124bf61246a565b5b60006124ce84828501612495565b91505092915050565b600081519050919050565b600082825260208201905092915050565b60005b838110156125115780820151818401526020810190506124f6565b60008484015250505050565b6000601f19601f8301169050919050565b6000612539826124d7565b61254381856124e2565b93506125538185602086016124f3565b61255c8161251d565b840191505092915050565b6000819050919050565b61257a81612567565b82525050565b61258981612474565b82525050565b60006101008201905081810360008301526125aa818b61252e565b905081810360208301526125be818a61252e565b905081810360408301526125d2818961252e565b905081810360608301526125e6818861252e565b90506125f56080830187612571565b61260260a0830186612571565b81810360c0830152612614818561252e565b905061262360e0830184612580565b9998505050505050505050565b600080fd5b600080fd5b7f4e487b7100000000000000000000000000000000000000000000000000000000600052604160045260246000fd5b6126728261251d565b810181811067ffffffffffffffff821117156126915761269061263a565b5b80604052505050565b60006126a4612460565b90506126b08282612669565b919050565b600067ffffffffffffffff8211156126d0576126cf61263a565b5b6126d98261251d565b9050602081019050919050565b82818337600083830152505050565b6000612708612703846126b5565b61269a565b90508281526020810184848401111561272457612723612635565b5b61272f8482856126e6565b509392505050565b600082601f83011261274c5761274b612630565b5b813561275c8482602086016126f5565b91505092915050565b60008060008060008060c087890312156127825761278161246a565b5b600087013567ffffffffffffffff8111156127a05761279f61246f565b5b6127ac89828a01612737565b965050602087013567ffffffffffffffff8111156127cd576127cc61246f565b5b6127d989828a01612737565b955050604087013567ffffffffffffffff8111156127fa576127f961246f565b5b61280689828a01612737565b945050606087013567ffffffffffffffff8111156128275761282661246f565b5b61283389828a01612737565b935050608087013567ffffffffffffffff8111156128545761285361246f565b5b61286089828a01612737565b92505060a061287189828a01612495565b9150509295509295509295565b61288781612567565b811461289257600080fd5b50565b6000813590506128a48161287e565b92915050565b600080600080600080600060e0888a0312156128c9576128c861246a565b5b600088013567ffffffffffffffff8111156128e7576128e661246f565b5b6128f38a828b01612737565b975050602088013567ffffffffffffffff8111156129145761291361246f565b5b6129208a828b01612737565b965050604088013567ffffffffffffffff8111156129415761294061246f565b5b61294d8a828b01612737565b955050606088013567ffffffffffffffff81111561296e5761296d61246f565b5b61297a8a828b01612737565b945050608061298b8a828b01612895565b93505060a061299c8a828b01612895565b92505060c088013567ffffffffffffffff8111156129bd576129bc61246f565b5b6129c98a828b01612737565b91505092959891949750929550565b600081519050919050565b600082825260208201905092915050565b6000819050602082019050919050565b600082825260208201905092915050565b6000612a20826124d7565b612a2a8185612a04565b9350612a3a8185602086016124f3565b612a438161251d565b840191505092915050565b600060a0830160008301518482036000860152612a6b8282612a15565b91505060208301518482036020860152612a858282612a15565b91505060408301518482036040860152612a9f8282612a15565b91505060608301518482036060860152612ab98282612a15565b91505060808301518482036080860152612ad38282612a15565b9150508091505092915050565b6000612aec8383612a4e565b905092915050565b6000602082019050919050565b6000612b0c826129d8565b612b1681856129e3565b935083602082028501612b28856129f4565b8060005b85811015612b645784840389528151612b458582612ae0565b9450612b5083612af4565b925060208a01995050600181019050612b2c565b50829750879550505050505092915050565b60006020820190508181036000830152612b908184612b01565b905092915050565b600081519050919050565b600082825260208201905092915050565b6000819050602082019050919050565b600073ffffffffffffffffffffffffffffffffffffffff82169050919050565b6000612bef82612bc4565b9050919050565b612bff81612be4565b82525050565b6000612c118383612bf6565b60208301905092915050565b6000602082019050919050565b6000612c3582612b98565b612c3f8185612ba3565b9350612c4a83612bb4565b8060005b83811015612c7b578151612c628882612c05565b9750612c6d83612c1d565b925050600181019050612c4e565b5085935050505092915050565b60006020820190508181036000830152612ca28184612c2a565b905092915050565b600081519050919050565b600082825260208201905092915050565b6000819050602082019050919050565b612cdf81612567565b82525050565b612cee81612474565b82525050565b600082825260208201905092915050565b6000612d1082612b98565b612d1a8185612cf4565b9350612d2583612bb4565b8060005b83811015612d56578151612d3d8882612c05565b9750612d4883612c1d565b925050600181019050612d29565b5085935050505092915050565b6000610120830160008301518482036000860152612d818282612a15565b91505060208301518482036020860152612d9b8282612a15565b91505060408301518482036040860152612db58282612a15565b91505060608301518482036060860152612dcf8282612a15565b9150506080830151612de46080860182612cd6565b5060a0830151612df760a0860182612cd6565b5060c083015184820360c0860152612e0f8282612a15565b91505060e0830151612e2460e0860182612ce5565b50610100830151848203610100860152612e3e8282612d05565b9150508091505092915050565b6000612e578383612d63565b905092915050565b6000602082019050919050565b6000612e7782612caa565b612e818185612cb5565b935083602082028501612e9385612cc6565b8060005b85811015612ecf5784840389528151612eb08582612e4b565b9450612ebb83612e5f565b925060208a01995050600181019050612e97565b50829750879550505050505092915050565b60006020820190508181036000830152612efb8184612e6c565b905092915050565b612f0c81612be4565b8114612f1757600080fd5b50565b600081359050612f2981612f03565b92915050565b600060208284031215612f4557612f4461246a565b5b6000612f5384828501612f1a565b91505092915050565b600060a0820190508181036000830152612f76818861252e565b90508181036020830152612f8a818761252e565b90508181036040830152612f9e818661252e565b90508181036060830152612fb2818561252e565b90508181036080830152612fc6818461252e565b90509695505050505050565b7f4e487b7100000000000000000000000000000000000000000000000000000000600052602260045260246000fd5b6000600282049050600182168061301957607f821691505b60208210810361302c5761302b612fd2565b5b50919050565b60008190508160005260206000209050919050565b60006020601f8301049050919050565b600082821b905092915050565b6000600883026130947fffffffffffffffffffffffffffffffffffffffffffffffffffffffffffffffff82613057565b61309e8683613057565b95508019841693508086168417925050509392505050565b6000819050919050565b60006130db6130d66130d184612567565b6130b6565b612567565b9050919050565b6000819050919050565b6130f5836130c0565b613109613101826130e2565b848454613064565b825550505050565b600090565b61311e613111565b6131298184846130ec565b505050565b5b8181101561314d57613142600082613116565b60018101905061312f565b5050565b601f8211156131925761316381613032565b61316c84613047565b8101602085101561317b578190505b61318f61318785613047565b83018261312e565b50505b505050565b600082821c905092915050565b60006131b560001984600802613197565b1980831691505092915050565b60006131ce83836131a4565b9150826002028217905092915050565b6131e7826124d7565b67ffffffffffffffff811115613200576131ff61263a565b5b61320a8254613001565b613215828285613151565b600060209050601f8311600181146132485760008415613236578287015190505b61324085826131c2565b8655506132a8565b601f19841661325686613032565b60005b8281101561327e57848901518255600182019150602085019450602081019050613259565b8683101561329b5784890151613297601f8916826131a4565b8355505b6001600288020188555050505b505050505050565b600081905092915050565b60006132c6826124d7565b6132d081856132b0565b93506132e08185602086016124f3565b80840191505092915050565b6000819050919050565b61330761330282612567565b6132ec565b82525050565b600061331982886132bb565b915061332582876132bb565b915061333182866132f6565b60208201915061334182856132f6565b60208201915061335182846132bb565b91508190509695505050505050565b60008154905061336f81613001565b9050919050565b81810361338457505061345c565b61338d82613360565b67ffffffffffffffff8111156133a6576133a561263a565b5b6133b08254613001565b6133bb828285613151565b6000601f8311600181146133ea57600084156133d8578287015490505b6133e285826131c2565b865550613455565b601f1984166133f887613032565b965061340386613032565b60005b8281101561342b57848901548255600182019150600185019450602081019050613406565b868310156134485784890154613444601f8916826131a4565b8355505b6001600288020188555050505b5050505050505b56fea2646970667358221220485c828939fa55ef1ab7d19c5d8609c1627613a1ea6178e6c2226dd1730ad27864736f6c63430008110033",
  "linkReferences": {},
  "deployedLinkReferences": {}
}