{
  "_format": "hh-sol-artifact-1",
  "contractName": "jobsWeb3",
  "sourceName": "contracts/jobsWeb3.sol",
  "abi": [
    {
      "inputs": [
        {
          "internalType": "address",
          "name": "keeperRegistryAddress",
          "type": "address"
        },
        {
          "internalType": "uint256",
          "name": "minWaitPeriodSeconds",
          "type": "uint256"
        }
      ],
      "stateMutability": "nonpayable",
      "type": "constructor"
    },
    {
      "inputs": [
        {
          "internalType": "address",
          "name": "duplicate",
          "type": "address"
        }
      ],
      "name": "DuplicateAddress",
      "type": "error"
    },
    {
      "inputs": [],
      "name": "InvalidWatchList",
      "type": "error"
    },
    {
      "inputs": [],
      "name": "OnlyKeeperRegistry",
      "type": "error"
    },
    {
      "anonymous": false,
      "inputs": [
        {
          "indexed": false,
          "internalType": "uint256",
          "name": "amountAdded",
          "type": "uint256"
        },
        {
          "indexed": false,
          "internalType": "uint256",
          "name": "newBalance",
          "type": "uint256"
        },
        {
          "indexed": false,
          "internalType": "address",
          "name": "sender",
          "type": "address"
        }
      ],
      "name": "FundsAdded",
      "type": "event"
    },
    {
      "anonymous": false,
      "inputs": [
        {
          "indexed": false,
          "internalType": "uint256",
          "name": "amountWithdrawn",
          "type": "uint256"
        },
        {
          "indexed": false,
          "internalType": "address",
          "name": "payee",
          "type": "address"
        }
      ],
      "name": "FundsWithdrawn",
      "type": "event"
    },
    {
      "anonymous": false,
      "inputs": [
        {
          "indexed": false,
          "internalType": "address",
          "name": "oldAddress",
          "type": "address"
        },
        {
          "indexed": false,
          "internalType": "address",
          "name": "newAddress",
          "type": "address"
        }
      ],
      "name": "KeeperRegistryAddressUpdated",
      "type": "event"
    },
    {
      "anonymous": false,
      "inputs": [
        {
          "indexed": false,
          "internalType": "uint256",
          "name": "oldMinWaitPeriod",
          "type": "uint256"
        },
        {
          "indexed": false,
          "internalType": "uint256",
          "name": "newMinWaitPeriod",
          "type": "uint256"
        }
      ],
      "name": "MinWaitPeriodUpdated",
      "type": "event"
    },
    {
      "anonymous": false,
      "inputs": [
        {
          "indexed": true,
          "internalType": "address",
          "name": "from",
          "type": "address"
        },
        {
          "indexed": true,
          "internalType": "address",
          "name": "to",
          "type": "address"
        }
      ],
      "name": "OwnershipTransferRequested",
      "type": "event"
    },
    {
      "anonymous": false,
      "inputs": [
        {
          "indexed": true,
          "internalType": "address",
          "name": "from",
          "type": "address"
        },
        {
          "indexed": true,
          "internalType": "address",
          "name": "to",
          "type": "address"
        }
      ],
      "name": "OwnershipTransferred",
      "type": "event"
    },
    {
      "anonymous": false,
      "inputs": [
        {
          "indexed": false,
          "internalType": "address",
          "name": "account",
          "type": "address"
        }
      ],
      "name": "Paused",
      "type": "event"
    },
    {
      "anonymous": false,
      "inputs": [
        {
          "indexed": true,
          "internalType": "address",
          "name": "recipient",
          "type": "address"
        }
      ],
      "name": "TopUpFailed",
      "type": "event"
    },
    {
      "anonymous": false,
      "inputs": [
        {
          "indexed": true,
          "internalType": "address",
          "name": "recipient",
          "type": "address"
        }
      ],
      "name": "TopUpSucceeded",
      "type": "event"
    },
    {
      "anonymous": false,
      "inputs": [
        {
          "indexed": false,
          "internalType": "address",
          "name": "account",
          "type": "address"
        }
      ],
      "name": "Unpaused",
      "type": "event"
    },
    {
      "anonymous": false,
      "inputs": [
        {
          "indexed": false,
          "internalType": "string",
          "name": "MarketStall",
          "type": "string"
        },
        {
          "indexed": false,
          "internalType": "string",
          "name": "business",
          "type": "string"
        },
        {
          "indexed": false,
          "internalType": "string",
          "name": "country",
          "type": "string"
        },
        {
          "indexed": false,
          "internalType": "string",
          "name": "description",
          "type": "string"
        },
        {
          "indexed": false,
          "internalType": "uint256",
          "name": "vacancies",
          "type": "uint256"
        },
        {
          "indexed": false,
          "internalType": "uint256",
          "name": "salary",
          "type": "uint256"
        },
        {
          "indexed": false,
          "internalType": "string",
          "name": "Contact",
          "type": "string"
        },
        {
          "indexed": false,
          "internalType": "bytes32",
          "name": "id",
          "type": "bytes32"
        }
      ],
      "name": "newJob",
      "type": "event"
    },
    {
      "anonymous": false,
      "inputs": [
        {
          "indexed": false,
          "internalType": "string",
          "name": "name",
          "type": "string"
        },
        {
          "indexed": false,
          "internalType": "string",
          "name": "surname",
          "type": "string"
        },
        {
          "indexed": false,
          "internalType": "string",
          "name": "presentationLetter",
          "type": "string"
        },
        {
          "indexed": false,
          "internalType": "string",
          "name": "email",
          "type": "string"
        },
        {
          "indexed": false,
          "internalType": "string",
          "name": "portfolio",
          "type": "string"
        },
        {
          "indexed": false,
          "internalType": "string",
          "name": "linkedin",
          "type": "string"
        }
      ],
      "name": "newProfesional",
      "type": "event"
    },
    {
      "inputs": [],
      "name": "acceptOwnership",
      "outputs": [],
      "stateMutability": "nonpayable",
      "type": "function"
    },
    {
      "inputs": [
        {
          "internalType": "bytes",
          "name": "",
          "type": "bytes"
        }
      ],
      "name": "checkUpkeep",
      "outputs": [
        {
          "internalType": "bool",
          "name": "upkeepNeeded",
          "type": "bool"
        },
        {
          "internalType": "bytes",
          "name": "performData",
          "type": "bytes"
        }
      ],
      "stateMutability": "view",
      "type": "function"
    },
    {
      "inputs": [
        {
          "internalType": "address",
          "name": "targetAddress",
          "type": "address"
        }
      ],
      "name": "getAccountInfo",
      "outputs": [
        {
          "internalType": "bool",
          "name": "isActive",
          "type": "bool"
        },
        {
          "internalType": "uint96",
          "name": "minBalanceWei",
          "type": "uint96"
        },
        {
          "internalType": "uint96",
          "name": "topUpAmountWei",
          "type": "uint96"
        },
        {
          "internalType": "uint56",
          "name": "lastTopUpTimestamp",
          "type": "uint56"
        }
      ],
      "stateMutability": "view",
      "type": "function"
    },
    {
      "inputs": [],
      "name": "getKeeperRegistryAddress",
      "outputs": [
        {
          "internalType": "address",
          "name": "keeperRegistryAddress",
          "type": "address"
        }
      ],
      "stateMutability": "view",
      "type": "function"
    },
    {
      "inputs": [],
      "name": "getMinWaitPeriodSeconds",
      "outputs": [
        {
          "internalType": "uint256",
          "name": "",
          "type": "uint256"
        }
      ],
      "stateMutability": "view",
      "type": "function"
    },
    {
      "inputs": [],
      "name": "getUnderfundedAddresses",
      "outputs": [
        {
          "internalType": "address[]",
          "name": "",
          "type": "address[]"
        }
      ],
      "stateMutability": "view",
      "type": "function"
    },
    {
      "inputs": [],
      "name": "getWatchList",
      "outputs": [
        {
          "internalType": "address[]",
          "name": "",
          "type": "address[]"
        }
      ],
      "stateMutability": "view",
      "type": "function"
    },
    {
      "inputs": [],
      "name": "owner",
      "outputs": [
        {
          "internalType": "address",
          "name": "",
          "type": "address"
        }
      ],
      "stateMutability": "view",
      "type": "function"
    },
    {
      "inputs": [],
      "name": "pause",
      "outputs": [],
      "stateMutability": "nonpayable",
      "type": "function"
    },
    {
      "inputs": [],
      "name": "paused",
      "outputs": [
        {
          "internalType": "bool",
          "name": "",
          "type": "bool"
        }
      ],
      "stateMutability": "view",
      "type": "function"
    },
    {
      "inputs": [
        {
          "internalType": "bytes",
          "name": "performData",
          "type": "bytes"
        }
      ],
      "name": "performUpkeep",
      "outputs": [],
      "stateMutability": "nonpayable",
      "type": "function"
    },
    {
      "inputs": [
        {
          "internalType": "string",
          "name": "_MarketStall",
          "type": "string"
        },
        {
          "internalType": "string",
          "name": "_business",
          "type": "string"
        },
        {
          "internalType": "string",
          "name": "_country",
          "type": "string"
        },
        {
          "internalType": "string",
          "name": "_description",
          "type": "string"
        },
        {
          "internalType": "uint256",
          "name": "_vacancies",
          "type": "uint256"
        },
        {
          "internalType": "uint256",
          "name": "_salary",
          "type": "uint256"
        },
        {
          "internalType": "string",
          "name": "_Contact",
          "type": "string"
        }
      ],
      "name": "postWork",
      "outputs": [],
      "stateMutability": "nonpayable",
      "type": "function"
    },
    {
      "inputs": [
        {
          "internalType": "string",
          "name": "_MarketStall",
          "type": "string"
        },
        {
          "internalType": "string",
          "name": "_business",
          "type": "string"
        },
        {
          "internalType": "string",
          "name": "_country",
          "type": "string"
        },
        {
          "internalType": "string",
          "name": "_description",
          "type": "string"
        },
        {
          "internalType": "uint256",
          "name": "_vacancies",
          "type": "uint256"
        },
        {
          "internalType": "uint256",
          "name": "_salary",
          "type": "uint256"
        },
        {
          "internalType": "string",
          "name": "_Contact",
          "type": "string"
        }
      ],
      "name": "postWorkPremium",
      "outputs": [],
      "stateMutability": "payable",
      "type": "function"
    },
    {
      "inputs": [
        {
          "internalType": "bytes32",
          "name": "_ID",
          "type": "bytes32"
        }
      ],
      "name": "postulate",
      "outputs": [],
      "stateMutability": "nonpayable",
      "type": "function"
    },
    {
      "inputs": [
        {
          "internalType": "string",
          "name": "_name",
          "type": "string"
        },
        {
          "internalType": "string",
          "name": "_surname",
          "type": "string"
        },
        {
          "internalType": "string",
          "name": "_presentationLetter",
          "type": "string"
        },
        {
          "internalType": "string",
          "name": "_email",
          "type": "string"
        },
        {
          "internalType": "string",
          "name": "_portfolio",
          "type": "string"
        },
        {
          "internalType": "string",
          "name": "_linkedin",
          "type": "string"
        }
      ],
      "name": "registerProfesional",
      "outputs": [],
      "stateMutability": "nonpayable",
      "type": "function"
    },
    {
      "inputs": [],
      "name": "restarting",
      "outputs": [],
      "stateMutability": "nonpayable",
      "type": "function"
    },
    {
      "inputs": [],
      "name": "returnjobs",
      "outputs": [
        {
          "components": [
            {
              "internalType": "string",
              "name": "MarketStall",
              "type": "string"
            },
            {
              "internalType": "string",
              "name": "business",
              "type": "string"
            },
            {
              "internalType": "string",
              "name": "country",
              "type": "string"
            },
            {
              "internalType": "string",
              "name": "description",
              "type": "string"
            },
            {
              "internalType": "uint256",
              "name": "vacancies",
              "type": "uint256"
            },
            {
              "internalType": "uint256",
              "name": "salary",
              "type": "uint256"
            },
            {
              "internalType": "string",
              "name": "Contact",
              "type": "string"
            },
            {
              "internalType": "bytes32",
              "name": "id",
              "type": "bytes32"
            },
            {
              "internalType": "address[]",
              "name": "applicants",
              "type": "address[]"
            }
          ],
          "internalType": "struct jobsWeb3.work[]",
          "name": "",
          "type": "tuple[]"
        }
      ],
      "stateMutability": "view",
      "type": "function"
    },
    {
      "inputs": [],
      "name": "returnjobsPremium",
      "outputs": [
        {
          "components": [
            {
              "internalType": "string",
              "name": "MarketStall",
              "type": "string"
            },
            {
              "internalType": "string",
              "name": "business",
              "type": "string"
            },
            {
              "internalType": "string",
              "name": "country",
              "type": "string"
            },
            {
              "internalType": "string",
              "name": "description",
              "type": "string"
            },
            {
              "internalType": "uint256",
              "name": "vacancies",
              "type": "uint256"
            },
            {
              "internalType": "uint256",
              "name": "salary",
              "type": "uint256"
            },
            {
              "internalType": "string",
              "name": "Contact",
              "type": "string"
            },
            {
              "internalType": "bytes32",
              "name": "id",
              "type": "bytes32"
            },
            {
              "internalType": "address[]",
              "name": "applicants",
              "type": "address[]"
            }
          ],
          "internalType": "struct jobsWeb3.work[]",
          "name": "",
          "type": "tuple[]"
        }
      ],
      "stateMutability": "view",
      "type": "function"
    },
    {
      "inputs": [
        {
          "internalType": "bytes32",
          "name": "_id",
          "type": "bytes32"
        }
      ],
      "name": "returnpostulant",
      "outputs": [
        {
          "internalType": "address[]",
          "name": "",
          "type": "address[]"
        }
      ],
      "stateMutability": "view",
      "type": "function"
    },
    {
      "inputs": [
        {
          "internalType": "address",
          "name": "",
          "type": "address"
        }
      ],
      "name": "seeProfesionales",
      "outputs": [
        {
          "internalType": "string",
          "name": "name",
          "type": "string"
        },
        {
          "internalType": "string",
          "name": "surname",
          "type": "string"
        },
        {
          "internalType": "string",
          "name": "presentationLetter",
          "type": "string"
        },
        {
          "internalType": "string",
          "name": "email",
          "type": "string"
        },
        {
          "internalType": "string",
          "name": "portfolio",
          "type": "string"
        },
        {
          "internalType": "string",
          "name": "linkedin",
          "type": "string"
        }
      ],
      "stateMutability": "view",
      "type": "function"
    },
    {
      "inputs": [
        {
          "internalType": "bytes32",
          "name": "",
          "type": "bytes32"
        }
      ],
      "name": "seeWork",
      "outputs": [
        {
          "internalType": "string",
          "name": "MarketStall",
          "type": "string"
        },
        {
          "internalType": "string",
          "name": "business",
          "type": "string"
        },
        {
          "internalType": "string",
          "name": "country",
          "type": "string"
        },
        {
          "internalType": "string",
          "name": "description",
          "type": "string"
        },
        {
          "internalType": "uint256",
          "name": "vacancies",
          "type": "uint256"
        },
        {
          "internalType": "uint256",
          "name": "salary",
          "type": "uint256"
        },
        {
          "internalType": "string",
          "name": "Contact",
          "type": "string"
        },
        {
          "internalType": "bytes32",
          "name": "id",
          "type": "bytes32"
        }
      ],
      "stateMutability": "view",
      "type": "function"
    },
    {
      "inputs": [
        {
          "internalType": "address",
          "name": "keeperRegistryAddress",
          "type": "address"
        }
      ],
      "name": "setKeeperRegistryAddress",
      "outputs": [],
      "stateMutability": "nonpayable",
      "type": "function"
    },
    {
      "inputs": [
        {
          "internalType": "uint256",
          "name": "period",
          "type": "uint256"
        }
      ],
      "name": "setMinWaitPeriodSeconds",
      "outputs": [],
      "stateMutability": "nonpayable",
      "type": "function"
    },
    {
      "inputs": [
        {
          "internalType": "address[]",
          "name": "addresses",
          "type": "address[]"
        },
        {
          "internalType": "uint96[]",
          "name": "minBalancesWei",
          "type": "uint96[]"
        },
        {
          "internalType": "uint96[]",
          "name": "topUpAmountsWei",
          "type": "uint96[]"
        }
      ],
      "name": "setWatchList",
      "outputs": [],
      "stateMutability": "nonpayable",
      "type": "function"
    },
    {
      "inputs": [
        {
          "internalType": "address[]",
          "name": "needsFunding",
          "type": "address[]"
        }
      ],
      "name": "topUp",
      "outputs": [],
      "stateMutability": "nonpayable",
      "type": "function"
    },
    {
      "inputs": [
        {
          "internalType": "address",
          "name": "to",
          "type": "address"
        }
      ],
      "name": "transferOwnership",
      "outputs": [],
      "stateMutability": "nonpayable",
      "type": "function"
    },
    {
      "inputs": [],
      "name": "unpause",
      "outputs": [],
      "stateMutability": "nonpayable",
      "type": "function"
    },
    {
      "inputs": [
        {
          "internalType": "uint256",
          "name": "amount",
          "type": "uint256"
        },
        {
          "internalType": "address payable",
          "name": "payee",
          "type": "address"
        }
      ],
      "name": "withdraw",
      "outputs": [],
      "stateMutability": "nonpayable",
      "type": "function"
    },
    {
      "inputs": [],
      "name": "withdraw",
      "outputs": [],
      "stateMutability": "payable",
      "type": "function"
    },
    {
      "stateMutability": "payable",
      "type": "receive"
    }
  ],
  "bytecode": "0x60806040523480156200001157600080fd5b5060405162005c3d38038062005c3d8339818101604052810190620000379190620004f1565b338060008073ffffffffffffffffffffffffffffffffffffffff168273ffffffffffffffffffffffffffffffffffffffff161415620000ad576040517f08c379a0000000000000000000000000000000000000000000000000000000008152600401620000a4906200061e565b60405180910390fd5b816000806101000a81548173ffffffffffffffffffffffffffffffffffffffff021916908373ffffffffffffffffffffffffffffffffffffffff160217905550600073ffffffffffffffffffffffffffffffffffffffff168173ffffffffffffffffffffffffffffffffffffffff161462000134576200013381620001bd60201b60201c565b5b5050506000600160146101000a81548160ff0219169083151502179055506200016382620002ed60201b60201c565b6200017481620003d960201b60201c565b33600260006101000a81548173ffffffffffffffffffffffffffffffffffffffff021916908373ffffffffffffffffffffffffffffffffffffffff160217905550505062000792565b3373ffffffffffffffffffffffffffffffffffffffff168173ffffffffffffffffffffffffffffffffffffffff1614156200022f576040517f08c379a0000000000000000000000000000000000000000000000000000000008152600401620002269062000640565b60405180910390fd5b80600160006101000a81548173ffffffffffffffffffffffffffffffffffffffff021916908373ffffffffffffffffffffffffffffffffffffffff1602179055508073ffffffffffffffffffffffffffffffffffffffff1660008054906101000a900473ffffffffffffffffffffffffffffffffffffffff1673ffffffffffffffffffffffffffffffffffffffff167fed8889f560326eb138920d842192f0eb3dd22b4f139c87a2c57538e05bae127860405160405180910390a350565b620002fd6200043060201b60201c565b600073ffffffffffffffffffffffffffffffffffffffff168173ffffffffffffffffffffffffffffffffffffffff1614156200033857600080fd5b7fb732223055abcde751d7a24272ffc8a3aa571cb72b443969a4199b7ecd59f8b9600360009054906101000a900473ffffffffffffffffffffffffffffffffffffffff16826040516200038d929190620005cf565b60405180910390a180600360006101000a81548173ffffffffffffffffffffffffffffffffffffffff021916908373ffffffffffffffffffffffffffffffffffffffff16021790555050565b620003e96200043060201b60201c565b7f04330086c73b1fe1e13cd47a61c692e7c4399b5de08ed94b7ab824684af09323600454826040516200041e92919062000662565b60405180910390a18060048190555050565b60008054906101000a900473ffffffffffffffffffffffffffffffffffffffff1673ffffffffffffffffffffffffffffffffffffffff163373ffffffffffffffffffffffffffffffffffffffff1614620004c1576040517f08c379a0000000000000000000000000000000000000000000000000000000008152600401620004b890620005fc565b60405180910390fd5b565b600081519050620004d4816200075e565b92915050565b600081519050620004eb8162000778565b92915050565b600080604083850312156200050b576200050a620006de565b5b60006200051b85828601620004c3565b92505060206200052e85828601620004da565b9150509250929050565b6200054381620006a0565b82525050565b6000620005586016836200068f565b91506200056582620006e3565b602082019050919050565b60006200057f6018836200068f565b91506200058c826200070c565b602082019050919050565b6000620005a66017836200068f565b9150620005b38262000735565b602082019050919050565b620005c981620006d4565b82525050565b6000604082019050620005e6600083018562000538565b620005f5602083018462000538565b9392505050565b60006020820190508181036000830152620006178162000549565b9050919050565b60006020820190508181036000830152620006398162000570565b9050919050565b600060208201905081810360008301526200065b8162000597565b9050919050565b6000604082019050620006796000830185620005be565b620006886020830184620005be565b9392505050565b600082825260208201905092915050565b6000620006ad82620006b4565b9050919050565b600073ffffffffffffffffffffffffffffffffffffffff82169050919050565b6000819050919050565b600080fd5b7f4f6e6c792063616c6c61626c65206279206f776e657200000000000000000000600082015250565b7f43616e6e6f7420736574206f776e657220746f207a65726f0000000000000000600082015250565b7f43616e6e6f74207472616e7366657220746f2073656c66000000000000000000600082015250565b6200076981620006a0565b81146200077557600080fd5b50565b6200078381620006d4565b81146200078f57600080fd5b50565b61549b80620007a26000396000f3fe6080604052600436106101c55760003560e01c8063728584b7116100f757806395f90eb811610095578063b1d52fa011610064578063b1d52fa014610628578063d5992da814610651578063e6e2c4d81461066d578063f2fde38b1461069857610207565b806395f90eb814610567578063ab2394fb146105a4578063acf9dbb2146105bb578063af052e53146105e657610207565b8063810623e3116100d1578063810623e3146104d15780638456cb59146104fc5780638da5cb5b14610513578063945551141461053e57610207565b8063728584b71461044f57806379ba50971461047a5780637b510fe81461049157610207565b80633e4ca6771161016457806341d2052e1161013e57806341d2052e146103925780634585e33b146103bd5780635c975abb146103e65780636e04ff0d1461041157610207565b80633e4ca677146103295780633f4ba83a146103525780633f85861f1461036957610207565b80630e458e5e116101a05780630e458e5e146102a457806322eb7983146102cd57806329753387146102f65780633ccfd60b1461031f57610207565b8062f714ce1461020c57806307b7c255146102355780630b67ddce1461027957610207565b36610207577fc6f3fb0fec49e4877342d4625d77a632541f55b7aae0f9d0b34c69b3478706dc3447336040516101fd93929190614e63565b60405180910390a1005b600080fd5b34801561021857600080fd5b50610233600480360381019061022e91906145d5565b6106c1565b005b34801561024157600080fd5b5061025c600480360381019061025791906142cb565b610787565b604051610270989796959493929190614cb5565b60405180910390f35b34801561028557600080fd5b5061028e610a77565b60405161029b9190614b56565b60405180910390f35b3480156102b057600080fd5b506102cb60048036038101906102c691906142cb565b610def565b005b3480156102d957600080fd5b506102f460048036038101906102ef919061447a565b610e84565b005b34801561030257600080fd5b5061031d60048036038101906103189190614345565b61126f565b005b6103276113d5565b005b34801561033557600080fd5b50610350600480360381019061034b9190614282565b611437565b005b34801561035e57600080fd5b506103676117dc565b005b34801561037557600080fd5b50610390600480360381019061038b91906145a8565b6117ee565b005b34801561039e57600080fd5b506103a761183b565b6040516103b49190614df6565b60405180910390f35b3480156103c957600080fd5b506103e460048036038101906103df91906142f8565b611845565b005b3480156103f257600080fd5b506103fb6118f5565b6040516104089190614b9a565b60405180910390f35b34801561041d57600080fd5b50610438600480360381019061043391906142f8565b61190c565b604051610446929190614bb5565b60405180910390f35b34801561045b57600080fd5b50610464611955565b6040516104719190614b56565b60405180910390f35b34801561048657600080fd5b5061048f6119e3565b005b34801561049d57600080fd5b506104b860048036038101906104b391906141a1565b611b78565b6040516104c89493929190614be5565b60405180910390f35b3480156104dd57600080fd5b506104e6611cb6565b6040516104f39190614b12565b60405180910390f35b34801561050857600080fd5b50610511611ce0565b005b34801561051f57600080fd5b50610528611cf2565b6040516105359190614b12565b60405180910390f35b34801561054a57600080fd5b50610565600480360381019061056091906141a1565b611d1b565b005b34801561057357600080fd5b5061058e600480360381019061058991906142cb565b611dfc565b60405161059b9190614b56565b60405180910390f35b3480156105b057600080fd5b506105b96121bb565b005b3480156105c757600080fd5b506105d0612257565b6040516105dd9190614b78565b60405180910390f35b3480156105f257600080fd5b5061060d600480360381019061060891906141a1565b61263d565b60405161061f96959493929190614c2a565b60405180910390f35b34801561063457600080fd5b5061064f600480360381019061064a91906141ce565b6129a9565b005b61066b6004803603810190610666919061447a565b612efa565b005b34801561067957600080fd5b506106826132f9565b60405161068f9190614b78565b60405180910390f35b3480156106a457600080fd5b506106bf60048036038101906106ba91906141a1565b6136df565b005b6106c96136f3565b600073ffffffffffffffffffffffffffffffffffffffff168173ffffffffffffffffffffffffffffffffffffffff16141561070357600080fd5b7f6141b54b56b8a52a8c6f5cd2a857f6117b18ffbf4d46bd3106f300a839cbf5ea8282604051610734929190614e11565b60405180910390a18073ffffffffffffffffffffffffffffffffffffffff166108fc839081150290604051600060405180830381858888f19350505050158015610782573d6000803e3d6000fd5b505050565b600b6020528060005260406000206000915090508060000180546107aa90615184565b80601f01602080910402602001604051908101604052809291908181526020018280546107d690615184565b80156108235780601f106107f857610100808354040283529160200191610823565b820191906000526020600020905b81548152906001019060200180831161080657829003601f168201915b50505050509080600101805461083890615184565b80601f016020809104026020016040519081016040528092919081815260200182805461086490615184565b80156108b15780601f10610886576101008083540402835291602001916108b1565b820191906000526020600020905b81548152906001019060200180831161089457829003601f168201915b5050505050908060020180546108c690615184565b80601f01602080910402602001604051908101604052809291908181526020018280546108f290615184565b801561093f5780601f106109145761010080835404028352916020019161093f565b820191906000526020600020905b81548152906001019060200180831161092257829003601f168201915b50505050509080600301805461095490615184565b80601f016020809104026020016040519081016040528092919081815260200182805461098090615184565b80156109cd5780601f106109a2576101008083540402835291602001916109cd565b820191906000526020600020905b8154815290600101906020018083116109b057829003601f168201915b5050505050908060040154908060050154908060060180546109ee90615184565b80601f0160208091040260200160405190810160405280929190818152602001828054610a1a90615184565b8015610a675780601f10610a3c57610100808354040283529160200191610a67565b820191906000526020600020905b815481529060010190602001808311610a4a57829003601f168201915b5050505050908060070154905088565b606060006005805480602002602001604051908101604052809291908181526020018280548015610afd57602002820191906000526020600020905b8160009054906101000a900473ffffffffffffffffffffffffffffffffffffffff1673ffffffffffffffffffffffffffffffffffffffff1681526020019060010190808311610ab3575b505050505090506000815167ffffffffffffffff811115610b2157610b206152c7565b5b604051908082528060200260200182016040528015610b4f5781602001602082028036833780820191505090505b50905060008060045490506000479050610b67613a10565b60005b8651811015610dd65760066000888381518110610b8a57610b89615298565b5b602002602001015173ffffffffffffffffffffffffffffffffffffffff1673ffffffffffffffffffffffffffffffffffffffff1681526020019081526020016000206040518060800160405290816000820160009054906101000a900460ff161515151581526020016000820160019054906101000a90046bffffffffffffffffffffffff166bffffffffffffffffffffffff166bffffffffffffffffffffffff16815260200160008201600d9054906101000a90046bffffffffffffffffffffffff166bffffffffffffffffffffffff166bffffffffffffffffffffffff1681526020016000820160199054906101000a900466ffffffffffffff1666ffffffffffffff1666ffffffffffffff168152505091504284836060015166ffffffffffffff16610cb99190614ff3565b11158015610cd9575081604001516bffffffffffffffffffffffff168310155b8015610d27575081602001516bffffffffffffffffffffffff16878281518110610d0657610d05615298565b5b602002602001015173ffffffffffffffffffffffffffffffffffffffff1631105b15610dc357868181518110610d3f57610d3e615298565b5b6020026020010151868681518110610d5a57610d59615298565b5b602002602001019073ffffffffffffffffffffffffffffffffffffffff16908173ffffffffffffffffffffffffffffffffffffffff16815250508480610d9f906151e7565b95505081604001516bffffffffffffffffffffffff1683610dc09190615049565b92505b8080610dce906151e7565b915050610b6a565b5085518414610de3578385525b84965050505050505090565b6000600b6000838152602001908152602001600020905080600801339080600181540180825580915050600190039060005260206000200160009091909190916101000a81548173ffffffffffffffffffffffffffffffffffffffff021916908373ffffffffffffffffffffffffffffffffffffffff160217905550600b600083815260200190815260200160002090505050565b60008488848685604051602001610e9f959493929190614abf565b60405160208183030381529060405280519060200120905060076040518061012001604052808a8152602001898152602001888152602001878152602001868152602001858152602001848152602001838152602001600a805480602002602001604051908101604052809291908181526020018280548015610f7757602002820191906000526020600020905b8160009054906101000a900473ffffffffffffffffffffffffffffffffffffffff1673ffffffffffffffffffffffffffffffffffffffff1681526020019060010190808311610f2d575b505050505081525090806001815401808255809150506001900390600052602060002090600902016000909190919091506000820151816000019080519060200190610fc4929190613a5f565b506020820151816001019080519060200190610fe1929190613a5f565b506040820151816002019080519060200190610ffe929190613a5f565b50606082015181600301908051906020019061101b929190613a5f565b506080820151816004015560a0820151816005015560c082015181600601908051906020019061104c929190613a5f565b5060e08201518160070155610100820151816008019080519060200190611074929190613ae5565b505050604051806101200160405280898152602001888152602001878152602001868152602001858152602001848152602001838152602001828152602001600a80548060200260200160405190810160405280929190818152602001828054801561113557602002820191906000526020600020905b8160009054906101000a900473ffffffffffffffffffffffffffffffffffffffff1673ffffffffffffffffffffffffffffffffffffffff16815260200190600101908083116110eb575b5050505050815250600b6000838152602001908152602001600020600082015181600001908051906020019061116c929190613a5f565b506020820151816001019080519060200190611189929190613a5f565b5060408201518160020190805190602001906111a6929190613a5f565b5060608201518160030190805190602001906111c3929190613a5f565b506080820151816004015560a0820151816005015560c08201518160060190805190602001906111f4929190613a5f565b5060e0820151816007015561010082015181600801908051906020019061121c929190613ae5565b509050507f5832205b89ffbe4930de0bc4b4436ad765dd3c85bf33c242ead040a7b1b34cae888888888888888860405161125d989796959493929190614cb5565b60405180910390a15050505050505050565b6040518060c0016040528087815260200186815260200185815260200184815260200183815260200182815250600c60003373ffffffffffffffffffffffffffffffffffffffff1673ffffffffffffffffffffffffffffffffffffffff16815260200190815260200160002060008201518160000190805190602001906112f7929190613a5f565b506020820151816001019080519060200190611314929190613a5f565b506040820151816002019080519060200190611331929190613a5f565b50606082015181600301908051906020019061134e929190613a5f565b50608082015181600401908051906020019061136b929190613a5f565b5060a0820151816005019080519060200190611388929190613a5f565b509050507f0387da30d577cb5ad68dfc7e63ec877f7b57ec2f44b4d85b8861c67d240e4f008686868686866040516113c596959493929190614c2a565b60405180910390a1505050505050565b600260009054906101000a900473ffffffffffffffffffffffffffffffffffffffff1673ffffffffffffffffffffffffffffffffffffffff166108fc479081150290604051600060405180830381858888f1935050505061143557600080fd5b565b61143f613783565b6000600454905061144e613a10565b60005b83518110156117d5576006600085838151811061147157611470615298565b5b602002602001015173ffffffffffffffffffffffffffffffffffffffff1673ffffffffffffffffffffffffffffffffffffffff1681526020019081526020016000206040518060800160405290816000820160009054906101000a900460ff161515151581526020016000820160019054906101000a90046bffffffffffffffffffffffff166bffffffffffffffffffffffff166bffffffffffffffffffffffff16815260200160008201600d9054906101000a90046bffffffffffffffffffffffff166bffffffffffffffffffffffff166bffffffffffffffffffffffff1681526020016000820160199054906101000a900466ffffffffffffff1666ffffffffffffff1666ffffffffffffff16815250509150816000015180156115af57504283836060015166ffffffffffffff166115ac9190614ff3565b11155b80156115fd575081602001516bffffffffffffffffffffffff168482815181106115dc576115db615298565b5b602002602001015173ffffffffffffffffffffffffffffffffffffffff1631105b156117b057600084828151811061161757611616615298565b5b602002602001015173ffffffffffffffffffffffffffffffffffffffff166108fc84604001516bffffffffffffffffffffffff169081150290604051600060405180830381858888f193505050509050801561175057426006600087858151811061168557611684615298565b5b602002602001015173ffffffffffffffffffffffffffffffffffffffff1673ffffffffffffffffffffffffffffffffffffffff16815260200190815260200160002060000160196101000a81548166ffffffffffffff021916908366ffffffffffffff16021790555084828151811061170157611700615298565b5b602002602001015173ffffffffffffffffffffffffffffffffffffffff167f9eec55c371a49ce19e0a5792787c79b32dcf7d3490aa737436b49c0978ce9ce960405160405180910390a26117ae565b84828151811061176357611762615298565b5b602002602001015173ffffffffffffffffffffffffffffffffffffffff167fa9ff7a9b96721b0e16adb7de9db0764fbfd6a4516d4d165f9564e8c3755eb10560405160405180910390a25b505b61d6d85a10156117c2575050506117d9565b80806117cd906151e7565b915050611451565b5050505b50565b6117e46136f3565b6117ec6137cd565b565b6117f66136f3565b7f04330086c73b1fe1e13cd47a61c692e7c4399b5de08ed94b7ab824684af0932360045482604051611829929190614e3a565b60405180910390a18060048190555050565b6000600454905090565b600360009054906101000a900473ffffffffffffffffffffffffffffffffffffffff1673ffffffffffffffffffffffffffffffffffffffff163373ffffffffffffffffffffffffffffffffffffffff16146118cc576040517fd3a6803400000000000000000000000000000000000000000000000000000000815260040160405180910390fd5b6118d4613783565b600082828101906118e59190614282565b90506118f081611437565b505050565b6000600160149054906101000a900460ff16905090565b60006060611918613783565b6000611922610a77565b9050600081511192508060405160200161193c9190614b56565b6040516020818303038152906040529150509250929050565b606060058054806020026020016040519081016040528092919081815260200182805480156119d957602002820191906000526020600020905b8160009054906101000a900473ffffffffffffffffffffffffffffffffffffffff1673ffffffffffffffffffffffffffffffffffffffff168152602001906001019080831161198f575b5050505050905090565b600160009054906101000a900473ffffffffffffffffffffffffffffffffffffffff1673ffffffffffffffffffffffffffffffffffffffff163373ffffffffffffffffffffffffffffffffffffffff1614611a73576040517f08c379a0000000000000000000000000000000000000000000000000000000008152600401611a6a90614d76565b60405180910390fd5b60008060009054906101000a900473ffffffffffffffffffffffffffffffffffffffff169050336000806101000a81548173ffffffffffffffffffffffffffffffffffffffff021916908373ffffffffffffffffffffffffffffffffffffffff1602179055506000600160006101000a81548173ffffffffffffffffffffffffffffffffffffffff021916908373ffffffffffffffffffffffffffffffffffffffff1602179055503373ffffffffffffffffffffffffffffffffffffffff168173ffffffffffffffffffffffffffffffffffffffff167f8be0079c531659141344cd1fd0a4f28419497f9722a3daafe3b4186f6b6457e060405160405180910390a350565b6000806000806000600660008773ffffffffffffffffffffffffffffffffffffffff1673ffffffffffffffffffffffffffffffffffffffff1681526020019081526020016000206040518060800160405290816000820160009054906101000a900460ff161515151581526020016000820160019054906101000a90046bffffffffffffffffffffffff166bffffffffffffffffffffffff166bffffffffffffffffffffffff16815260200160008201600d9054906101000a90046bffffffffffffffffffffffff166bffffffffffffffffffffffff166bffffffffffffffffffffffff1681526020016000820160199054906101000a900466ffffffffffffff1666ffffffffffffff1666ffffffffffffff1681525050905080600001518160200151826040015183606001519450945094509450509193509193565b6000600360009054906101000a900473ffffffffffffffffffffffffffffffffffffffff16905090565b611ce86136f3565b611cf0613830565b565b60008060009054906101000a900473ffffffffffffffffffffffffffffffffffffffff16905090565b611d236136f3565b600073ffffffffffffffffffffffffffffffffffffffff168173ffffffffffffffffffffffffffffffffffffffff161415611d5d57600080fd5b7fb732223055abcde751d7a24272ffc8a3aa571cb72b443969a4199b7ecd59f8b9600360009054906101000a900473ffffffffffffffffffffffffffffffffffffffff1682604051611db0929190614b2d565b60405180910390a180600360006101000a81548173ffffffffffffffffffffffffffffffffffffffff021916908373ffffffffffffffffffffffffffffffffffffffff16021790555050565b60606000600b600084815260200190815260200160002060405180610120016040529081600082018054611e2f90615184565b80601f0160208091040260200160405190810160405280929190818152602001828054611e5b90615184565b8015611ea85780601f10611e7d57610100808354040283529160200191611ea8565b820191906000526020600020905b815481529060010190602001808311611e8b57829003601f168201915b50505050508152602001600182018054611ec190615184565b80601f0160208091040260200160405190810160405280929190818152602001828054611eed90615184565b8015611f3a5780601f10611f0f57610100808354040283529160200191611f3a565b820191906000526020600020905b815481529060010190602001808311611f1d57829003601f168201915b50505050508152602001600282018054611f5390615184565b80601f0160208091040260200160405190810160405280929190818152602001828054611f7f90615184565b8015611fcc5780601f10611fa157610100808354040283529160200191611fcc565b820191906000526020600020905b815481529060010190602001808311611faf57829003601f168201915b50505050508152602001600382018054611fe590615184565b80601f016020809104026020016040519081016040528092919081815260200182805461201190615184565b801561205e5780601f106120335761010080835404028352916020019161205e565b820191906000526020600020905b81548152906001019060200180831161204157829003601f168201915b50505050508152602001600482015481526020016005820154815260200160068201805461208b90615184565b80601f01602080910402602001604051908101604052809291908181526020018280546120b790615184565b80156121045780601f106120d957610100808354040283529160200191612104565b820191906000526020600020905b8154815290600101906020018083116120e757829003601f168201915b50505050508152602001600782015481526020016008820180548060200260200160405190810160405280929190818152602001828054801561219c57602002820191906000526020600020905b8160009054906101000a900473ffffffffffffffffffffffffffffffffffffffff1673ffffffffffffffffffffffffffffffffffffffff1681526020019060010190808311612152575b5050505050815250509050600081610100015190508092505050919050565b600360009054906101000a900473ffffffffffffffffffffffffffffffffffffffff1673ffffffffffffffffffffffffffffffffffffffff163373ffffffffffffffffffffffffffffffffffffffff1614612242576040517fd3a6803400000000000000000000000000000000000000000000000000000000815260040160405180910390fd5b60096008908054612254929190613b6f565b50565b60606007805480602002602001604051908101604052809291908181526020016000905b828210156126345783829060005260206000209060090201604051806101200160405290816000820180546122af90615184565b80601f01602080910402602001604051908101604052809291908181526020018280546122db90615184565b80156123285780601f106122fd57610100808354040283529160200191612328565b820191906000526020600020905b81548152906001019060200180831161230b57829003601f168201915b5050505050815260200160018201805461234190615184565b80601f016020809104026020016040519081016040528092919081815260200182805461236d90615184565b80156123ba5780601f1061238f576101008083540402835291602001916123ba565b820191906000526020600020905b81548152906001019060200180831161239d57829003601f168201915b505050505081526020016002820180546123d390615184565b80601f01602080910402602001604051908101604052809291908181526020018280546123ff90615184565b801561244c5780601f106124215761010080835404028352916020019161244c565b820191906000526020600020905b81548152906001019060200180831161242f57829003601f168201915b5050505050815260200160038201805461246590615184565b80601f016020809104026020016040519081016040528092919081815260200182805461249190615184565b80156124de5780601f106124b3576101008083540402835291602001916124de565b820191906000526020600020905b8154815290600101906020018083116124c157829003601f168201915b50505050508152602001600482015481526020016005820154815260200160068201805461250b90615184565b80601f016020809104026020016040519081016040528092919081815260200182805461253790615184565b80156125845780601f1061255957610100808354040283529160200191612584565b820191906000526020600020905b81548152906001019060200180831161256757829003601f168201915b50505050508152602001600782015481526020016008820180548060200260200160405190810160405280929190818152602001828054801561261c57602002820191906000526020600020905b8160009054906101000a900473ffffffffffffffffffffffffffffffffffffffff1673ffffffffffffffffffffffffffffffffffffffff16815260200190600101908083116125d2575b5050505050815250508152602001906001019061227b565b50505050905090565b600c60205280600052604060002060009150905080600001805461266090615184565b80601f016020809104026020016040519081016040528092919081815260200182805461268c90615184565b80156126d95780601f106126ae576101008083540402835291602001916126d9565b820191906000526020600020905b8154815290600101906020018083116126bc57829003601f168201915b5050505050908060010180546126ee90615184565b80601f016020809104026020016040519081016040528092919081815260200182805461271a90615184565b80156127675780601f1061273c57610100808354040283529160200191612767565b820191906000526020600020905b81548152906001019060200180831161274a57829003601f168201915b50505050509080600201805461277c90615184565b80601f01602080910402602001604051908101604052809291908181526020018280546127a890615184565b80156127f55780601f106127ca576101008083540402835291602001916127f5565b820191906000526020600020905b8154815290600101906020018083116127d857829003601f168201915b50505050509080600301805461280a90615184565b80601f016020809104026020016040519081016040528092919081815260200182805461283690615184565b80156128835780601f1061285857610100808354040283529160200191612883565b820191906000526020600020905b81548152906001019060200180831161286657829003601f168201915b50505050509080600401805461289890615184565b80601f01602080910402602001604051908101604052809291908181526020018280546128c490615184565b80156129115780601f106128e657610100808354040283529160200191612911565b820191906000526020600020905b8154815290600101906020018083116128f457829003601f168201915b50505050509080600501805461292690615184565b80601f016020809104026020016040519081016040528092919081815260200182805461295290615184565b801561299f5780601f106129745761010080835404028352916020019161299f565b820191906000526020600020905b81548152906001019060200180831161298257829003601f168201915b5050505050905086565b6129b16136f3565b83839050868690501415806129cc5750818190508686905014155b15612a03576040517f3869bbe600000000000000000000000000000000000000000000000000000000815260040160405180910390fd5b60006005805480602002602001604051908101604052809291908181526020018280548015612a8757602002820191906000526020600020905b8160009054906101000a900473ffffffffffffffffffffffffffffffffffffffff1673ffffffffffffffffffffffffffffffffffffffff1681526020019060010190808311612a3d575b5050505050905060005b8151811015612b2257600060066000848481518110612ab357612ab2615298565b5b602002602001015173ffffffffffffffffffffffffffffffffffffffff1673ffffffffffffffffffffffffffffffffffffffff16815260200190815260200160002060000160006101000a81548160ff0219169083151502179055508080612b1a906151e7565b915050612a91565b5060005b87879050811015612ede5760066000898984818110612b4857612b47615298565b5b9050602002016020810190612b5d91906141a1565b73ffffffffffffffffffffffffffffffffffffffff1673ffffffffffffffffffffffffffffffffffffffff16815260200190815260200160002060000160009054906101000a900460ff1615612c1157878782818110612bc057612bbf615298565b5b9050602002016020810190612bd591906141a1565b6040517f9f2277f3000000000000000000000000000000000000000000000000000000008152600401612c089190614b12565b60405180910390fd5b600073ffffffffffffffffffffffffffffffffffffffff16888883818110612c3c57612c3b615298565b5b9050602002016020810190612c5191906141a1565b73ffffffffffffffffffffffffffffffffffffffff161415612c9f576040517f3869bbe600000000000000000000000000000000000000000000000000000000815260040160405180910390fd5b6000848483818110612cb457612cb3615298565b5b9050602002016020810190612cc99190614615565b6bffffffffffffffffffffffff161415612d0f576040517f3869bbe600000000000000000000000000000000000000000000000000000000815260040160405180910390fd5b6040518060800160405280600115158152602001878784818110612d3657612d35615298565b5b9050602002016020810190612d4b9190614615565b6bffffffffffffffffffffffff168152602001858584818110612d7157612d70615298565b5b9050602002016020810190612d869190614615565b6bffffffffffffffffffffffff168152602001600066ffffffffffffff16815250600660008a8a85818110612dbe57612dbd615298565b5b9050602002016020810190612dd391906141a1565b73ffffffffffffffffffffffffffffffffffffffff1673ffffffffffffffffffffffffffffffffffffffff16815260200190815260200160002060008201518160000160006101000a81548160ff02191690831515021790555060208201518160000160016101000a8154816bffffffffffffffffffffffff02191690836bffffffffffffffffffffffff160217905550604082015181600001600d6101000a8154816bffffffffffffffffffffffff02191690836bffffffffffffffffffffffff16021790555060608201518160000160196101000a81548166ffffffffffffff021916908366ffffffffffffff1602179055509050508080612ed6906151e7565b915050612b26565b50868660059190612ef0929190613c9c565b5050505050505050565b6702c68af0bb1400003414612f0e57600080fd5b60008488848685604051602001612f29959493929190614abf565b60405160208183030381529060405280519060200120905060086040518061012001604052808a8152602001898152602001888152602001878152602001868152602001858152602001848152602001838152602001600a80548060200260200160405190810160405280929190818152602001828054801561300157602002820191906000526020600020905b8160009054906101000a900473ffffffffffffffffffffffffffffffffffffffff1673ffffffffffffffffffffffffffffffffffffffff1681526020019060010190808311612fb7575b50505050508152509080600181540180825580915050600190039060005260206000209060090201600090919091909150600082015181600001908051906020019061304e929190613a5f565b50602082015181600101908051906020019061306b929190613a5f565b506040820151816002019080519060200190613088929190613a5f565b5060608201518160030190805190602001906130a5929190613a5f565b506080820151816004015560a0820151816005015560c08201518160060190805190602001906130d6929190613a5f565b5060e082015181600701556101008201518160080190805190602001906130fe929190613ae5565b505050604051806101200160405280898152602001888152602001878152602001868152602001858152602001848152602001838152602001828152602001600a8054806020026020016040519081016040528092919081815260200182805480156131bf57602002820191906000526020600020905b8160009054906101000a900473ffffffffffffffffffffffffffffffffffffffff1673ffffffffffffffffffffffffffffffffffffffff1681526020019060010190808311613175575b5050505050815250600b600083815260200190815260200160002060008201518160000190805190602001906131f6929190613a5f565b506020820151816001019080519060200190613213929190613a5f565b506040820151816002019080519060200190613230929190613a5f565b50606082015181600301908051906020019061324d929190613a5f565b506080820151816004015560a0820151816005015560c082015181600601908051906020019061327e929190613a5f565b5060e082015181600701556101008201518160080190805190602001906132a6929190613ae5565b509050507f5832205b89ffbe4930de0bc4b4436ad765dd3c85bf33c242ead040a7b1b34cae88888888888888886040516132e7989796959493929190614cb5565b60405180910390a15050505050505050565b60606008805480602002602001604051908101604052809291908181526020016000905b828210156136d657838290600052602060002090600902016040518061012001604052908160008201805461335190615184565b80601f016020809104026020016040519081016040528092919081815260200182805461337d90615184565b80156133ca5780601f1061339f576101008083540402835291602001916133ca565b820191906000526020600020905b8154815290600101906020018083116133ad57829003601f168201915b505050505081526020016001820180546133e390615184565b80601f016020809104026020016040519081016040528092919081815260200182805461340f90615184565b801561345c5780601f106134315761010080835404028352916020019161345c565b820191906000526020600020905b81548152906001019060200180831161343f57829003601f168201915b5050505050815260200160028201805461347590615184565b80601f01602080910402602001604051908101604052809291908181526020018280546134a190615184565b80156134ee5780601f106134c3576101008083540402835291602001916134ee565b820191906000526020600020905b8154815290600101906020018083116134d157829003601f168201915b5050505050815260200160038201805461350790615184565b80601f016020809104026020016040519081016040528092919081815260200182805461353390615184565b80156135805780601f1061355557610100808354040283529160200191613580565b820191906000526020600020905b81548152906001019060200180831161356357829003601f168201915b5050505050815260200160048201548152602001600582015481526020016006820180546135ad90615184565b80601f01602080910402602001604051908101604052809291908181526020018280546135d990615184565b80156136265780601f106135fb57610100808354040283529160200191613626565b820191906000526020600020905b81548152906001019060200180831161360957829003601f168201915b5050505050815260200160078201548152602001600882018054806020026020016040519081016040528092919081815260200182805480156136be57602002820191906000526020600020905b8160009054906101000a900473ffffffffffffffffffffffffffffffffffffffff1673ffffffffffffffffffffffffffffffffffffffff1681526020019060010190808311613674575b5050505050815250508152602001906001019061331d565b50505050905090565b6136e76136f3565b6136f081613892565b50565b60008054906101000a900473ffffffffffffffffffffffffffffffffffffffff1673ffffffffffffffffffffffffffffffffffffffff163373ffffffffffffffffffffffffffffffffffffffff1614613781576040517f08c379a000000000000000000000000000000000000000000000000000000000815260040161377890614d96565b60405180910390fd5b565b61378b6118f5565b156137cb576040517f08c379a00000000000000000000000000000000000000000000000000000000081526004016137c290614db6565b60405180910390fd5b565b6137d56139bf565b6000600160146101000a81548160ff0219169083151502179055507f5db9ee0a495bf2e6ff9c91a7834c1ba4fdd244a5e8aa4e537bd38aeae4b073aa613819613a08565b6040516138269190614b12565b60405180910390a1565b613838613783565b60018060146101000a81548160ff0219169083151502179055507f62e78cea01bee320cd4e420270b5ea74000d11b0c9f74754ebdbfc544b05a25861387b613a08565b6040516138889190614b12565b60405180910390a1565b3373ffffffffffffffffffffffffffffffffffffffff168173ffffffffffffffffffffffffffffffffffffffff161415613901576040517f08c379a00000000000000000000000000000000000000000000000000000000081526004016138f890614dd6565b60405180910390fd5b80600160006101000a81548173ffffffffffffffffffffffffffffffffffffffff021916908373ffffffffffffffffffffffffffffffffffffffff1602179055508073ffffffffffffffffffffffffffffffffffffffff1660008054906101000a900473ffffffffffffffffffffffffffffffffffffffff1673ffffffffffffffffffffffffffffffffffffffff167fed8889f560326eb138920d842192f0eb3dd22b4f139c87a2c57538e05bae127860405160405180910390a350565b6139c76118f5565b613a06576040517f08c379a00000000000000000000000000000000000000000000000000000000081526004016139fd90614d56565b60405180910390fd5b565b600033905090565b604051806080016040528060001515815260200160006bffffffffffffffffffffffff16815260200160006bffffffffffffffffffffffff168152602001600066ffffffffffffff1681525090565b828054613a6b90615184565b90600052602060002090601f016020900481019282613a8d5760008555613ad4565b82601f10613aa657805160ff1916838001178555613ad4565b82800160010185558215613ad4579182015b82811115613ad3578251825591602001919060010190613ab8565b5b509050613ae19190613d3c565b5090565b828054828255906000526020600020908101928215613b5e579160200282015b82811115613b5d5782518260006101000a81548173ffffffffffffffffffffffffffffffffffffffff021916908373ffffffffffffffffffffffffffffffffffffffff16021790555091602001919060010190613b05565b5b509050613b6b9190613d3c565b5090565b828054828255906000526020600020906009028101928215613c8b5760005260206000209160090282015b82811115613c8a5782826000820181600001908054613bb890615184565b613bc3929190613d59565b506001820181600101908054613bd890615184565b613be3929190613d59565b506002820181600201908054613bf890615184565b613c03929190613d59565b506003820181600301908054613c1890615184565b613c23929190613d59565b5060048201548160040155600582015481600501556006820181600601908054613c4c90615184565b613c57929190613d59565b50600782015481600701556008820181600801908054613c78929190613de6565b50505091600901919060090190613b9a565b5b509050613c989190613e38565b5090565b828054828255906000526020600020908101928215613d2b579160200282015b82811115613d2a57823573ffffffffffffffffffffffffffffffffffffffff168260006101000a81548173ffffffffffffffffffffffffffffffffffffffff021916908373ffffffffffffffffffffffffffffffffffffffff16021790555091602001919060010190613cbc565b5b509050613d389190613d3c565b5090565b5b80821115613d55576000816000905550600101613d3d565b5090565b828054613d6590615184565b90600052602060002090601f016020900481019282613d875760008555613dd5565b82601f10613d985780548555613dd5565b82800160010185558215613dd557600052602060002091601f016020900482015b82811115613dd4578254825591600101919060010190613db9565b5b509050613de29190613d3c565b5090565b828054828255906000526020600020908101928215613e275760005260206000209182015b82811115613e26578254825591600101919060010190613e0b565b5b509050613e349190613d3c565b5090565b5b80821115613ec35760008082016000613e529190613ec7565b600182016000613e629190613ec7565b600282016000613e729190613ec7565b600382016000613e829190613ec7565b60048201600090556005820160009055600682016000613ea29190613ec7565b6007820160009055600882016000613eba9190613f07565b50600901613e39565b5090565b508054613ed390615184565b6000825580601f10613ee55750613f04565b601f016020900490600052602060002090810190613f039190613d3c565b5b50565b5080546000825590600052602060002090810190613f259190613d3c565b50565b6000613f3b613f3684614ebf565b614e9a565b90508083825260208201905082856020860282011115613f5e57613f5d615300565b5b60005b85811015613f8e5781613f748882613fda565b845260208401935060208301925050600181019050613f61565b5050509392505050565b6000613fab613fa684614eeb565b614e9a565b905082815260208101848484011115613fc757613fc6615305565b5b613fd2848285615142565b509392505050565b600081359050613fe9816153f2565b92915050565b600081359050613ffe81615409565b92915050565b60008083601f84011261401a576140196152fb565b5b8235905067ffffffffffffffff811115614037576140366152f6565b5b60208301915083602082028301111561405357614052615300565b5b9250929050565b600082601f83011261406f5761406e6152fb565b5b813561407f848260208601613f28565b91505092915050565b60008083601f84011261409e5761409d6152fb565b5b8235905067ffffffffffffffff8111156140bb576140ba6152f6565b5b6020830191508360208202830111156140d7576140d6615300565b5b9250929050565b6000813590506140ed81615420565b92915050565b60008083601f840112614109576141086152fb565b5b8235905067ffffffffffffffff811115614126576141256152f6565b5b60208301915083600182028301111561414257614141615300565b5b9250929050565b600082601f83011261415e5761415d6152fb565b5b813561416e848260208601613f98565b91505092915050565b60008135905061418681615437565b92915050565b60008135905061419b8161544e565b92915050565b6000602082840312156141b7576141b661530f565b5b60006141c584828501613fda565b91505092915050565b600080600080600080606087890312156141eb576141ea61530f565b5b600087013567ffffffffffffffff8111156142095761420861530a565b5b61421589828a01614004565b9650965050602087013567ffffffffffffffff8111156142385761423761530a565b5b61424489828a01614088565b9450945050604087013567ffffffffffffffff8111156142675761426661530a565b5b61427389828a01614088565b92509250509295509295509295565b6000602082840312156142985761429761530f565b5b600082013567ffffffffffffffff8111156142b6576142b561530a565b5b6142c28482850161405a565b91505092915050565b6000602082840312156142e1576142e061530f565b5b60006142ef848285016140de565b91505092915050565b6000806020838503121561430f5761430e61530f565b5b600083013567ffffffffffffffff81111561432d5761432c61530a565b5b614339858286016140f3565b92509250509250929050565b60008060008060008060c087890312156143625761436161530f565b5b600087013567ffffffffffffffff8111156143805761437f61530a565b5b61438c89828a01614149565b965050602087013567ffffffffffffffff8111156143ad576143ac61530a565b5b6143b989828a01614149565b955050604087013567ffffffffffffffff8111156143da576143d961530a565b5b6143e689828a01614149565b945050606087013567ffffffffffffffff8111156144075761440661530a565b5b61441389828a01614149565b935050608087013567ffffffffffffffff8111156144345761443361530a565b5b61444089828a01614149565b92505060a087013567ffffffffffffffff8111156144615761446061530a565b5b61446d89828a01614149565b9150509295509295509295565b600080600080600080600060e0888a0312156144995761449861530f565b5b600088013567ffffffffffffffff8111156144b7576144b661530a565b5b6144c38a828b01614149565b975050602088013567ffffffffffffffff8111156144e4576144e361530a565b5b6144f08a828b01614149565b965050604088013567ffffffffffffffff8111156145115761451061530a565b5b61451d8a828b01614149565b955050606088013567ffffffffffffffff81111561453e5761453d61530a565b5b61454a8a828b01614149565b945050608061455b8a828b01614177565b93505060a061456c8a828b01614177565b92505060c088013567ffffffffffffffff81111561458d5761458c61530a565b5b6145998a828b01614149565b91505092959891949750929550565b6000602082840312156145be576145bd61530f565b5b60006145cc84828501614177565b91505092915050565b600080604083850312156145ec576145eb61530f565b5b60006145fa85828601614177565b925050602061460b85828601613fef565b9150509250929050565b60006020828403121561462b5761462a61530f565b5b60006146398482850161418c565b91505092915050565b600061464e838361467d565b60208301905092915050565b60006146668383614984565b905092915050565b6146778161510c565b82525050565b6146868161507d565b82525050565b6146958161507d565b82525050565b60006146a682614f3c565b6146b08185614f82565b93506146bb83614f1c565b8060005b838110156146ec5781516146d38882614642565b97506146de83614f68565b9250506001810190506146bf565b5085935050505092915050565b600061470482614f3c565b61470e8185614f93565b935061471983614f1c565b8060005b8381101561474a5781516147318882614642565b975061473c83614f68565b92505060018101905061471d565b5085935050505092915050565b600061476282614f47565b61476c8185614fa4565b93508360208202850161477e85614f2c565b8060005b858110156147ba578484038952815161479b858261465a565b94506147a683614f75565b925060208a01995050600181019050614782565b50829750879550505050505092915050565b6147d5816150a1565b82525050565b6147e4816150ad565b82525050565b6147f3816150ad565b82525050565b600061480482614f52565b61480e8185614fb5565b935061481e818560208601615151565b61482781615314565b840191505092915050565b600061483d82614f5d565b6148478185614fc6565b9350614857818560208601615151565b61486081615314565b840191505092915050565b600061487682614f5d565b6148808185614fd7565b9350614890818560208601615151565b61489981615314565b840191505092915050565b60006148af82614f5d565b6148b98185614fe8565b93506148c9818560208601615151565b80840191505092915050565b60006148e2601483614fd7565b91506148ed82615325565b602082019050919050565b6000614905601683614fd7565b91506149108261534e565b602082019050919050565b6000614928601683614fd7565b915061493382615377565b602082019050919050565b600061494b601083614fd7565b9150614956826153a0565b602082019050919050565b600061496e601783614fd7565b9150614979826153c9565b602082019050919050565b60006101208301600083015184820360008601526149a28282614832565b915050602083015184820360208601526149bc8282614832565b915050604083015184820360408601526149d68282614832565b915050606083015184820360608601526149f08282614832565b9150506080830151614a056080860182614a6c565b5060a0830151614a1860a0860182614a6c565b5060c083015184820360c0860152614a308282614832565b91505060e0830151614a4560e08601826147db565b50610100830151848203610100860152614a5f828261469b565b9150508091505092915050565b614a75816150d7565b82525050565b614a84816150d7565b82525050565b614a9b614a96826150d7565b615230565b82525050565b614aaa816150e1565b82525050565b614ab9816150f4565b82525050565b6000614acb82886148a4565b9150614ad782876148a4565b9150614ae38286614a8a565b602082019150614af38285614a8a565b602082019150614b0382846148a4565b91508190509695505050505050565b6000602082019050614b27600083018461468c565b92915050565b6000604082019050614b42600083018561468c565b614b4f602083018461468c565b9392505050565b60006020820190508181036000830152614b7081846146f9565b905092915050565b60006020820190508181036000830152614b928184614757565b905092915050565b6000602082019050614baf60008301846147cc565b92915050565b6000604082019050614bca60008301856147cc565b8181036020830152614bdc81846147f9565b90509392505050565b6000608082019050614bfa60008301876147cc565b614c076020830186614ab0565b614c146040830185614ab0565b614c216060830184614aa1565b95945050505050565b600060c0820190508181036000830152614c44818961486b565b90508181036020830152614c58818861486b565b90508181036040830152614c6c818761486b565b90508181036060830152614c80818661486b565b90508181036080830152614c94818561486b565b905081810360a0830152614ca8818461486b565b9050979650505050505050565b6000610100820190508181036000830152614cd0818b61486b565b90508181036020830152614ce4818a61486b565b90508181036040830152614cf8818961486b565b90508181036060830152614d0c818861486b565b9050614d1b6080830187614a7b565b614d2860a0830186614a7b565b81810360c0830152614d3a818561486b565b9050614d4960e08301846147ea565b9998505050505050505050565b60006020820190508181036000830152614d6f816148d5565b9050919050565b60006020820190508181036000830152614d8f816148f8565b9050919050565b60006020820190508181036000830152614daf8161491b565b9050919050565b60006020820190508181036000830152614dcf8161493e565b9050919050565b60006020820190508181036000830152614def81614961565b9050919050565b6000602082019050614e0b6000830184614a7b565b92915050565b6000604082019050614e266000830185614a7b565b614e33602083018461466e565b9392505050565b6000604082019050614e4f6000830185614a7b565b614e5c6020830184614a7b565b9392505050565b6000606082019050614e786000830186614a7b565b614e856020830185614a7b565b614e92604083018461468c565b949350505050565b6000614ea4614eb5565b9050614eb082826151b6565b919050565b6000604051905090565b600067ffffffffffffffff821115614eda57614ed96152c7565b5b602082029050602081019050919050565b600067ffffffffffffffff821115614f0657614f056152c7565b5b614f0f82615314565b9050602081019050919050565b6000819050602082019050919050565b6000819050602082019050919050565b600081519050919050565b600081519050919050565b600081519050919050565b600081519050919050565b6000602082019050919050565b6000602082019050919050565b600082825260208201905092915050565b600082825260208201905092915050565b600082825260208201905092915050565b600082825260208201905092915050565b600082825260208201905092915050565b600082825260208201905092915050565b600081905092915050565b6000614ffe826150d7565b9150615009836150d7565b9250827fffffffffffffffffffffffffffffffffffffffffffffffffffffffffffffffff0382111561503e5761503d61523a565b5b828201905092915050565b6000615054826150d7565b915061505f836150d7565b9250828210156150725761507161523a565b5b828203905092915050565b6000615088826150b7565b9050919050565b600061509a826150b7565b9050919050565b60008115159050919050565b6000819050919050565b600073ffffffffffffffffffffffffffffffffffffffff82169050919050565b6000819050919050565b600066ffffffffffffff82169050919050565b60006bffffffffffffffffffffffff82169050919050565b60006151178261511e565b9050919050565b600061512982615130565b9050919050565b600061513b826150b7565b9050919050565b82818337600083830152505050565b60005b8381101561516f578082015181840152602081019050615154565b8381111561517e576000848401525b50505050565b6000600282049050600182168061519c57607f821691505b602082108114156151b0576151af615269565b5b50919050565b6151bf82615314565b810181811067ffffffffffffffff821117156151de576151dd6152c7565b5b80604052505050565b60006151f2826150d7565b91507fffffffffffffffffffffffffffffffffffffffffffffffffffffffffffffffff8214156152255761522461523a565b5b600182019050919050565b6000819050919050565b7f4e487b7100000000000000000000000000000000000000000000000000000000600052601160045260246000fd5b7f4e487b7100000000000000000000000000000000000000000000000000000000600052602260045260246000fd5b7f4e487b7100000000000000000000000000000000000000000000000000000000600052603260045260246000fd5b7f4e487b7100000000000000000000000000000000000000000000000000000000600052604160045260246000fd5b600080fd5b600080fd5b600080fd5b600080fd5b600080fd5b600080fd5b6000601f19601f8301169050919050565b7f5061757361626c653a206e6f7420706175736564000000000000000000000000600082015250565b7f4d7573742062652070726f706f736564206f776e657200000000000000000000600082015250565b7f4f6e6c792063616c6c61626c65206279206f776e657200000000000000000000600082015250565b7f5061757361626c653a2070617573656400000000000000000000000000000000600082015250565b7f43616e6e6f74207472616e7366657220746f2073656c66000000000000000000600082015250565b6153fb8161507d565b811461540657600080fd5b50565b6154128161508f565b811461541d57600080fd5b50565b615429816150ad565b811461543457600080fd5b50565b615440816150d7565b811461544b57600080fd5b50565b615457816150f4565b811461546257600080fd5b5056fea26469706673582212206d172d7032c4d87712ba8068a310b99c92a836cff9d9036070532eec6091978d64736f6c63430008060033",
  "linkReferences": {},
  "deployedLinkReferences": {}
}