{
  "_format": "hh-sol-artifact-1",
  "contractName": "jobsWeb3",
  "sourceName": "contracts/jobsWeb3.sol",
  "abi": [
    {
      "inputs": [],
      "stateMutability": "nonpayable",
      "type": "constructor"
    },
    {
      "anonymous": false,
      "inputs": [
        {
          "indexed": false,
          "internalType": "string",
          "name": "MarketStall",
          "type": "string"
        },
        {
          "indexed": false,
          "internalType": "string",
          "name": "business",
          "type": "string"
        },
        {
          "indexed": false,
          "internalType": "string",
          "name": "country",
          "type": "string"
        },
        {
          "indexed": false,
          "internalType": "string",
          "name": "description",
          "type": "string"
        },
        {
          "indexed": false,
          "internalType": "uint256",
          "name": "vacancies",
          "type": "uint256"
        },
        {
          "indexed": false,
          "internalType": "uint256",
          "name": "salary",
          "type": "uint256"
        },
        {
          "indexed": false,
          "internalType": "string",
          "name": "Contact",
          "type": "string"
        },
        {
          "indexed": false,
          "internalType": "bytes32",
          "name": "id",
          "type": "bytes32"
        }
      ],
      "name": "newJob",
      "type": "event"
    },
    {
      "anonymous": false,
      "inputs": [
        {
          "indexed": false,
          "internalType": "string",
          "name": "name",
          "type": "string"
        },
        {
          "indexed": false,
          "internalType": "string",
          "name": "surname",
          "type": "string"
        },
        {
          "indexed": false,
          "internalType": "string",
          "name": "presentationLetter",
          "type": "string"
        },
        {
          "indexed": false,
          "internalType": "string",
          "name": "email",
          "type": "string"
        },
        {
          "indexed": false,
          "internalType": "string",
          "name": "portfolio",
          "type": "string"
        },
        {
          "indexed": false,
          "internalType": "string",
          "name": "linkedin",
          "type": "string"
        }
      ],
      "name": "newProfesional",
      "type": "event"
    },
    {
      "inputs": [
        {
          "internalType": "string",
          "name": "_MarketStall",
          "type": "string"
        },
        {
          "internalType": "string",
          "name": "_business",
          "type": "string"
        },
        {
          "internalType": "string",
          "name": "_country",
          "type": "string"
        },
        {
          "internalType": "string",
          "name": "_description",
          "type": "string"
        },
        {
          "internalType": "uint256",
          "name": "_vacancies",
          "type": "uint256"
        },
        {
          "internalType": "uint256",
          "name": "_salary",
          "type": "uint256"
        },
        {
          "internalType": "string",
          "name": "_Contact",
          "type": "string"
        }
      ],
      "name": "postWork",
      "outputs": [],
      "stateMutability": "nonpayable",
      "type": "function"
    },
    {
      "inputs": [
        {
          "internalType": "string",
          "name": "_MarketStall",
          "type": "string"
        },
        {
          "internalType": "string",
          "name": "_business",
          "type": "string"
        },
        {
          "internalType": "string",
          "name": "_country",
          "type": "string"
        },
        {
          "internalType": "string",
          "name": "_description",
          "type": "string"
        },
        {
          "internalType": "uint256",
          "name": "_vacancies",
          "type": "uint256"
        },
        {
          "internalType": "uint256",
          "name": "_salary",
          "type": "uint256"
        },
        {
          "internalType": "string",
          "name": "_Contact",
          "type": "string"
        }
      ],
      "name": "postWorkPremium",
      "outputs": [],
      "stateMutability": "nonpayable",
      "type": "function"
    },
    {
      "inputs": [
        {
          "internalType": "bytes32",
          "name": "_ID",
          "type": "bytes32"
        }
      ],
      "name": "postulate",
      "outputs": [],
      "stateMutability": "nonpayable",
      "type": "function"
    },
    {
      "inputs": [
        {
          "internalType": "string",
          "name": "_name",
          "type": "string"
        },
        {
          "internalType": "string",
          "name": "_surname",
          "type": "string"
        },
        {
          "internalType": "string",
          "name": "_presentationLetter",
          "type": "string"
        },
        {
          "internalType": "string",
          "name": "_email",
          "type": "string"
        },
        {
          "internalType": "string",
          "name": "_portfolio",
          "type": "string"
        },
        {
          "internalType": "string",
          "name": "_linkedin",
          "type": "string"
        }
      ],
      "name": "registerProfesional",
      "outputs": [],
      "stateMutability": "nonpayable",
      "type": "function"
    },
    {
      "inputs": [],
      "name": "restarting",
      "outputs": [],
      "stateMutability": "nonpayable",
      "type": "function"
    },
    {
      "inputs": [],
      "name": "returnjobs",
      "outputs": [
        {
          "components": [
            {
              "internalType": "string",
              "name": "MarketStall",
              "type": "string"
            },
            {
              "internalType": "string",
              "name": "business",
              "type": "string"
            },
            {
              "internalType": "string",
              "name": "country",
              "type": "string"
            },
            {
              "internalType": "string",
              "name": "description",
              "type": "string"
            },
            {
              "internalType": "uint256",
              "name": "vacancies",
              "type": "uint256"
            },
            {
              "internalType": "uint256",
              "name": "salary",
              "type": "uint256"
            },
            {
              "internalType": "string",
              "name": "Contact",
              "type": "string"
            },
            {
              "internalType": "bytes32",
              "name": "id",
              "type": "bytes32"
            },
            {
              "internalType": "address[]",
              "name": "applicants",
              "type": "address[]"
            }
          ],
          "internalType": "struct jobsWeb3.work[]",
          "name": "",
          "type": "tuple[]"
        }
      ],
      "stateMutability": "view",
      "type": "function"
    },
    {
      "inputs": [],
      "name": "returnjobsPremium",
      "outputs": [
        {
          "components": [
            {
              "internalType": "string",
              "name": "MarketStall",
              "type": "string"
            },
            {
              "internalType": "string",
              "name": "business",
              "type": "string"
            },
            {
              "internalType": "string",
              "name": "country",
              "type": "string"
            },
            {
              "internalType": "string",
              "name": "description",
              "type": "string"
            },
            {
              "internalType": "uint256",
              "name": "vacancies",
              "type": "uint256"
            },
            {
              "internalType": "uint256",
              "name": "salary",
              "type": "uint256"
            },
            {
              "internalType": "string",
              "name": "Contact",
              "type": "string"
            },
            {
              "internalType": "bytes32",
              "name": "id",
              "type": "bytes32"
            },
            {
              "internalType": "address[]",
              "name": "applicants",
              "type": "address[]"
            }
          ],
          "internalType": "struct jobsWeb3.work[]",
          "name": "",
          "type": "tuple[]"
        }
      ],
      "stateMutability": "view",
      "type": "function"
    },
    {
      "inputs": [
        {
          "internalType": "bytes32",
          "name": "_id",
          "type": "bytes32"
        }
      ],
      "name": "returnpostulant",
      "outputs": [
        {
          "internalType": "address[]",
          "name": "",
          "type": "address[]"
        }
      ],
      "stateMutability": "view",
      "type": "function"
    },
    {
      "inputs": [
        {
          "internalType": "address",
          "name": "",
          "type": "address"
        }
      ],
      "name": "seeProfesionales",
      "outputs": [
        {
          "internalType": "string",
          "name": "name",
          "type": "string"
        },
        {
          "internalType": "string",
          "name": "surname",
          "type": "string"
        },
        {
          "internalType": "string",
          "name": "presentationLetter",
          "type": "string"
        },
        {
          "internalType": "string",
          "name": "email",
          "type": "string"
        },
        {
          "internalType": "string",
          "name": "portfolio",
          "type": "string"
        },
        {
          "internalType": "string",
          "name": "linkedin",
          "type": "string"
        }
      ],
      "stateMutability": "view",
      "type": "function"
    },
    {
      "inputs": [
        {
          "internalType": "bytes32",
          "name": "",
          "type": "bytes32"
        }
      ],
      "name": "seeWork",
      "outputs": [
        {
          "internalType": "string",
          "name": "MarketStall",
          "type": "string"
        },
        {
          "internalType": "string",
          "name": "business",
          "type": "string"
        },
        {
          "internalType": "string",
          "name": "country",
          "type": "string"
        },
        {
          "internalType": "string",
          "name": "description",
          "type": "string"
        },
        {
          "internalType": "uint256",
          "name": "vacancies",
          "type": "uint256"
        },
        {
          "internalType": "uint256",
          "name": "salary",
          "type": "uint256"
        },
        {
          "internalType": "string",
          "name": "Contact",
          "type": "string"
        },
        {
          "internalType": "bytes32",
          "name": "id",
          "type": "bytes32"
        }
      ],
      "stateMutability": "view",
      "type": "function"
    },
    {
      "inputs": [],
      "name": "withdraw",
      "outputs": [],
      "stateMutability": "payable",
      "type": "function"
    }
  ],
  "bytecode": "0x608060405234801561001057600080fd5b50336000806101000a81548173ffffffffffffffffffffffffffffffffffffffff021916908373ffffffffffffffffffffffffffffffffffffffff16021790555061301c806100606000396000f3fe60806040526004361061009c5760003560e01c806395f90eb81161006457806395f90eb81461016a578063ab2394fb146101a7578063acf9dbb2146101be578063af052e53146101e9578063d5992da81461022b578063e6e2c4d8146102545761009c565b806307b7c255146100a15780630e458e5e146100e557806322eb79831461010e57806329753387146101375780633ccfd60b14610160575b600080fd5b3480156100ad57600080fd5b506100c860048036038101906100c39190612177565b61027f565b6040516100dc98979695949392919061225c565b60405180910390f35b3480156100f157600080fd5b5061010c60048036038101906101079190612177565b61056f565b005b34801561011a57600080fd5b506101356004803603810190610130919061245e565b610604565b005b34801561014357600080fd5b5061015e6004803603810190610159919061258c565b6109a9565b005b610168610ae5565b005b34801561017657600080fd5b50610191600480360381019061018c9190612177565b610b9d565b60405161019e91906127b1565b60405180910390f35b3480156101b357600080fd5b506101bc610f5c565b005b3480156101ca57600080fd5b506101d3610f71565b6040516101e09190612a54565b60405180910390f35b3480156101f557600080fd5b50610210600480360381019061020b9190612aa2565b611357565b60405161022296959493929190612acf565b60405180910390f35b34801561023757600080fd5b50610252600480360381019061024d919061245e565b6116c3565b005b34801561026057600080fd5b50610269611a68565b6040516102769190612a54565b60405180910390f35b60056020528060005260406000206000915090508060000180546102a290612b89565b80601f01602080910402602001604051908101604052809291908181526020018280546102ce90612b89565b801561031b5780601f106102f05761010080835404028352916020019161031b565b820191906000526020600020905b8154815290600101906020018083116102fe57829003601f168201915b50505050509080600101805461033090612b89565b80601f016020809104026020016040519081016040528092919081815260200182805461035c90612b89565b80156103a95780601f1061037e576101008083540402835291602001916103a9565b820191906000526020600020905b81548152906001019060200180831161038c57829003601f168201915b5050505050908060020180546103be90612b89565b80601f01602080910402602001604051908101604052809291908181526020018280546103ea90612b89565b80156104375780601f1061040c57610100808354040283529160200191610437565b820191906000526020600020905b81548152906001019060200180831161041a57829003601f168201915b50505050509080600301805461044c90612b89565b80601f016020809104026020016040519081016040528092919081815260200182805461047890612b89565b80156104c55780601f1061049a576101008083540402835291602001916104c5565b820191906000526020600020905b8154815290600101906020018083116104a857829003601f168201915b5050505050908060040154908060050154908060060180546104e690612b89565b80601f016020809104026020016040519081016040528092919081815260200182805461051290612b89565b801561055f5780601f106105345761010080835404028352916020019161055f565b820191906000526020600020905b81548152906001019060200180831161054257829003601f168201915b5050505050908060070154905088565b600060056000838152602001908152602001600020905080600801339080600181540180825580915050600190039060005260206000200160009091909190916101000a81548173ffffffffffffffffffffffffffffffffffffffff021916908373ffffffffffffffffffffffffffffffffffffffff1602179055506005600083815260200190815260200160002090505050565b6000848884868560405160200161061f959493929190612c17565b60405160208183030381529060405280519060200120905060016040518061012001604052808a815260200189815260200188815260200187815260200186815260200185815260200184815260200183815260200160048054806020026020016040519081016040528092919081815260200182805480156106f757602002820191906000526020600020905b8160009054906101000a900473ffffffffffffffffffffffffffffffffffffffff1673ffffffffffffffffffffffffffffffffffffffff16815260200190600101908083116106ad575b50505050508152509080600181540180825580915050600190039060005260206000209060090201600090919091909150600082015181600001908161073d9190612e16565b5060208201518160010190816107539190612e16565b5060408201518160020190816107699190612e16565b50606082015181600301908161077f9190612e16565b506080820151816004015560a0820151816005015560c08201518160060190816107a99190612e16565b5060e082015181600701556101008201518160080190805190602001906107d1929190611e4e565b505050604051806101200160405280898152602001888152602001878152602001868152602001858152602001848152602001838152602001828152602001600480548060200260200160405190810160405280929190818152602001828054801561089257602002820191906000526020600020905b8160009054906101000a900473ffffffffffffffffffffffffffffffffffffffff1673ffffffffffffffffffffffffffffffffffffffff1681526020019060010190808311610848575b50505050508152506005600083815260200190815260200160002060008201518160000190816108c29190612e16565b5060208201518160010190816108d89190612e16565b5060408201518160020190816108ee9190612e16565b5060608201518160030190816109049190612e16565b506080820151816004015560a0820151816005015560c082015181600601908161092e9190612e16565b5060e08201518160070155610100820151816008019080519060200190610956929190611e4e565b509050507f5832205b89ffbe4930de0bc4b4436ad765dd3c85bf33c242ead040a7b1b34cae888888888888888860405161099798979695949392919061225c565b60405180910390a15050505050505050565b6040518060c0016040528087815260200186815260200185815260200184815260200183815260200182815250600660003373ffffffffffffffffffffffffffffffffffffffff1673ffffffffffffffffffffffffffffffffffffffff1681526020019081526020016000206000820151816000019081610a2a9190612e16565b506020820151816001019081610a409190612e16565b506040820151816002019081610a569190612e16565b506060820151816003019081610a6c9190612e16565b506080820151816004019081610a829190612e16565b5060a0820151816005019081610a989190612e16565b509050507f0387da30d577cb5ad68dfc7e63ec877f7b57ec2f44b4d85b8861c67d240e4f00868686868686604051610ad596959493929190612acf565b60405180910390a1505050505050565b3373ffffffffffffffffffffffffffffffffffffffff1660008054906101000a900473ffffffffffffffffffffffffffffffffffffffff1673ffffffffffffffffffffffffffffffffffffffff1614610b3d57600080fd5b60008054906101000a900473ffffffffffffffffffffffffffffffffffffffff1673ffffffffffffffffffffffffffffffffffffffff166108fc479081150290604051600060405180830381858888f19350505050610b9b57600080fd5b565b606060006005600084815260200190815260200160002060405180610120016040529081600082018054610bd090612b89565b80601f0160208091040260200160405190810160405280929190818152602001828054610bfc90612b89565b8015610c495780601f10610c1e57610100808354040283529160200191610c49565b820191906000526020600020905b815481529060010190602001808311610c2c57829003601f168201915b50505050508152602001600182018054610c6290612b89565b80601f0160208091040260200160405190810160405280929190818152602001828054610c8e90612b89565b8015610cdb5780601f10610cb057610100808354040283529160200191610cdb565b820191906000526020600020905b815481529060010190602001808311610cbe57829003601f168201915b50505050508152602001600282018054610cf490612b89565b80601f0160208091040260200160405190810160405280929190818152602001828054610d2090612b89565b8015610d6d5780601f10610d4257610100808354040283529160200191610d6d565b820191906000526020600020905b815481529060010190602001808311610d5057829003601f168201915b50505050508152602001600382018054610d8690612b89565b80601f0160208091040260200160405190810160405280929190818152602001828054610db290612b89565b8015610dff5780601f10610dd457610100808354040283529160200191610dff565b820191906000526020600020905b815481529060010190602001808311610de257829003601f168201915b505050505081526020016004820154815260200160058201548152602001600682018054610e2c90612b89565b80601f0160208091040260200160405190810160405280929190818152602001828054610e5890612b89565b8015610ea55780601f10610e7a57610100808354040283529160200191610ea5565b820191906000526020600020905b815481529060010190602001808311610e8857829003601f168201915b505050505081526020016007820154815260200160088201805480602002602001604051908101604052809291908181526020018280548015610f3d57602002820191906000526020600020905b8160009054906101000a900473ffffffffffffffffffffffffffffffffffffffff1673ffffffffffffffffffffffffffffffffffffffff1681526020019060010190808311610ef3575b5050505050815250509050600081610100015190508092505050919050565b60036002908054610f6e929190611ed8565b50565b60606001805480602002602001604051908101604052809291908181526020016000905b8282101561134e578382906000526020600020906009020160405180610120016040529081600082018054610fc990612b89565b80601f0160208091040260200160405190810160405280929190818152602001828054610ff590612b89565b80156110425780601f1061101757610100808354040283529160200191611042565b820191906000526020600020905b81548152906001019060200180831161102557829003601f168201915b5050505050815260200160018201805461105b90612b89565b80601f016020809104026020016040519081016040528092919081815260200182805461108790612b89565b80156110d45780601f106110a9576101008083540402835291602001916110d4565b820191906000526020600020905b8154815290600101906020018083116110b757829003601f168201915b505050505081526020016002820180546110ed90612b89565b80601f016020809104026020016040519081016040528092919081815260200182805461111990612b89565b80156111665780601f1061113b57610100808354040283529160200191611166565b820191906000526020600020905b81548152906001019060200180831161114957829003601f168201915b5050505050815260200160038201805461117f90612b89565b80601f01602080910402602001604051908101604052809291908181526020018280546111ab90612b89565b80156111f85780601f106111cd576101008083540402835291602001916111f8565b820191906000526020600020905b8154815290600101906020018083116111db57829003601f168201915b50505050508152602001600482015481526020016005820154815260200160068201805461122590612b89565b80601f016020809104026020016040519081016040528092919081815260200182805461125190612b89565b801561129e5780601f106112735761010080835404028352916020019161129e565b820191906000526020600020905b81548152906001019060200180831161128157829003601f168201915b50505050508152602001600782015481526020016008820180548060200260200160405190810160405280929190818152602001828054801561133657602002820191906000526020600020905b8160009054906101000a900473ffffffffffffffffffffffffffffffffffffffff1673ffffffffffffffffffffffffffffffffffffffff16815260200190600101908083116112ec575b50505050508152505081526020019060010190610f95565b50505050905090565b600660205280600052604060002060009150905080600001805461137a90612b89565b80601f01602080910402602001604051908101604052809291908181526020018280546113a690612b89565b80156113f35780601f106113c8576101008083540402835291602001916113f3565b820191906000526020600020905b8154815290600101906020018083116113d657829003601f168201915b50505050509080600101805461140890612b89565b80601f016020809104026020016040519081016040528092919081815260200182805461143490612b89565b80156114815780601f1061145657610100808354040283529160200191611481565b820191906000526020600020905b81548152906001019060200180831161146457829003601f168201915b50505050509080600201805461149690612b89565b80601f01602080910402602001604051908101604052809291908181526020018280546114c290612b89565b801561150f5780601f106114e45761010080835404028352916020019161150f565b820191906000526020600020905b8154815290600101906020018083116114f257829003601f168201915b50505050509080600301805461152490612b89565b80601f016020809104026020016040519081016040528092919081815260200182805461155090612b89565b801561159d5780601f106115725761010080835404028352916020019161159d565b820191906000526020600020905b81548152906001019060200180831161158057829003601f168201915b5050505050908060040180546115b290612b89565b80601f01602080910402602001604051908101604052809291908181526020018280546115de90612b89565b801561162b5780601f106116005761010080835404028352916020019161162b565b820191906000526020600020905b81548152906001019060200180831161160e57829003601f168201915b50505050509080600501805461164090612b89565b80601f016020809104026020016040519081016040528092919081815260200182805461166c90612b89565b80156116b95780601f1061168e576101008083540402835291602001916116b9565b820191906000526020600020905b81548152906001019060200180831161169c57829003601f168201915b5050505050905086565b600084888486856040516020016116de959493929190612c17565b60405160208183030381529060405280519060200120905060026040518061012001604052808a815260200189815260200188815260200187815260200186815260200185815260200184815260200183815260200160048054806020026020016040519081016040528092919081815260200182805480156117b657602002820191906000526020600020905b8160009054906101000a900473ffffffffffffffffffffffffffffffffffffffff1673ffffffffffffffffffffffffffffffffffffffff168152602001906001019080831161176c575b5050505050815250908060018154018082558091505060019003906000526020600020906009020160009091909190915060008201518160000190816117fc9190612e16565b5060208201518160010190816118129190612e16565b5060408201518160020190816118289190612e16565b50606082015181600301908161183e9190612e16565b506080820151816004015560a0820151816005015560c08201518160060190816118689190612e16565b5060e08201518160070155610100820151816008019080519060200190611890929190611e4e565b505050604051806101200160405280898152602001888152602001878152602001868152602001858152602001848152602001838152602001828152602001600480548060200260200160405190810160405280929190818152602001828054801561195157602002820191906000526020600020905b8160009054906101000a900473ffffffffffffffffffffffffffffffffffffffff1673ffffffffffffffffffffffffffffffffffffffff1681526020019060010190808311611907575b50505050508152506005600083815260200190815260200160002060008201518160000190816119819190612e16565b5060208201518160010190816119979190612e16565b5060408201518160020190816119ad9190612e16565b5060608201518160030190816119c39190612e16565b506080820151816004015560a0820151816005015560c08201518160060190816119ed9190612e16565b5060e08201518160070155610100820151816008019080519060200190611a15929190611e4e565b509050507f5832205b89ffbe4930de0bc4b4436ad765dd3c85bf33c242ead040a7b1b34cae8888888888888888604051611a5698979695949392919061225c565b60405180910390a15050505050505050565b60606002805480602002602001604051908101604052809291908181526020016000905b82821015611e45578382906000526020600020906009020160405180610120016040529081600082018054611ac090612b89565b80601f0160208091040260200160405190810160405280929190818152602001828054611aec90612b89565b8015611b395780601f10611b0e57610100808354040283529160200191611b39565b820191906000526020600020905b815481529060010190602001808311611b1c57829003601f168201915b50505050508152602001600182018054611b5290612b89565b80601f0160208091040260200160405190810160405280929190818152602001828054611b7e90612b89565b8015611bcb5780601f10611ba057610100808354040283529160200191611bcb565b820191906000526020600020905b815481529060010190602001808311611bae57829003601f168201915b50505050508152602001600282018054611be490612b89565b80601f0160208091040260200160405190810160405280929190818152602001828054611c1090612b89565b8015611c5d5780601f10611c3257610100808354040283529160200191611c5d565b820191906000526020600020905b815481529060010190602001808311611c4057829003601f168201915b50505050508152602001600382018054611c7690612b89565b80601f0160208091040260200160405190810160405280929190818152602001828054611ca290612b89565b8015611cef5780601f10611cc457610100808354040283529160200191611cef565b820191906000526020600020905b815481529060010190602001808311611cd257829003601f168201915b505050505081526020016004820154815260200160058201548152602001600682018054611d1c90612b89565b80601f0160208091040260200160405190810160405280929190818152602001828054611d4890612b89565b8015611d955780601f10611d6a57610100808354040283529160200191611d95565b820191906000526020600020905b815481529060010190602001808311611d7857829003601f168201915b505050505081526020016007820154815260200160088201805480602002602001604051908101604052809291908181526020018280548015611e2d57602002820191906000526020600020905b8160009054906101000a900473ffffffffffffffffffffffffffffffffffffffff1673ffffffffffffffffffffffffffffffffffffffff1681526020019060010190808311611de3575b50505050508152505081526020019060010190611a8c565b50505050905090565b828054828255906000526020600020908101928215611ec7579160200282015b82811115611ec65782518260006101000a81548173ffffffffffffffffffffffffffffffffffffffff021916908373ffffffffffffffffffffffffffffffffffffffff16021790555091602001919060010190611e6e565b5b509050611ed49190611fce565b5090565b828054828255906000526020600020906009028101928215611fbd5760005260206000209160090282015b82811115611fbc57828260008201816000019081611f219190612efe565b5060018201816001019081611f369190612efe565b5060028201816002019081611f4b9190612efe565b5060038201816003019081611f609190612efe565b50600482015481600401556005820154816005015560068201816006019081611f899190612efe565b50600782015481600701556008820181600801908054611faa929190611feb565b50505091600901919060090190611f03565b5b509050611fca919061203d565b5090565b5b80821115611fe7576000816000905550600101611fcf565b5090565b82805482825590600052602060002090810192821561202c5760005260206000209182015b8281111561202b578254825591600101919060010190612010565b5b5090506120399190611fce565b5090565b5b808211156120c8576000808201600061205791906120cc565b60018201600061206791906120cc565b60028201600061207791906120cc565b60038201600061208791906120cc565b600482016000905560058201600090556006820160006120a791906120cc565b60078201600090556008820160006120bf919061210c565b5060090161203e565b5090565b5080546120d890612b89565b6000825580601f106120ea5750612109565b601f0160209004906000526020600020908101906121089190611fce565b5b50565b508054600082559060005260206000209081019061212a9190611fce565b50565b6000604051905090565b600080fd5b600080fd5b6000819050919050565b61215481612141565b811461215f57600080fd5b50565b6000813590506121718161214b565b92915050565b60006020828403121561218d5761218c612137565b5b600061219b84828501612162565b91505092915050565b600081519050919050565b600082825260208201905092915050565b60005b838110156121de5780820151818401526020810190506121c3565b60008484015250505050565b6000601f19601f8301169050919050565b6000612206826121a4565b61221081856121af565b93506122208185602086016121c0565b612229816121ea565b840191505092915050565b6000819050919050565b61224781612234565b82525050565b61225681612141565b82525050565b6000610100820190508181036000830152612277818b6121fb565b9050818103602083015261228b818a6121fb565b9050818103604083015261229f81896121fb565b905081810360608301526122b381886121fb565b90506122c2608083018761223e565b6122cf60a083018661223e565b81810360c08301526122e181856121fb565b90506122f060e083018461224d565b9998505050505050505050565b600080fd5b600080fd5b7f4e487b7100000000000000000000000000000000000000000000000000000000600052604160045260246000fd5b61233f826121ea565b810181811067ffffffffffffffff8211171561235e5761235d612307565b5b80604052505050565b600061237161212d565b905061237d8282612336565b919050565b600067ffffffffffffffff82111561239d5761239c612307565b5b6123a6826121ea565b9050602081019050919050565b82818337600083830152505050565b60006123d56123d084612382565b612367565b9050828152602081018484840111156123f1576123f0612302565b5b6123fc8482856123b3565b509392505050565b600082601f830112612419576124186122fd565b5b81356124298482602086016123c2565b91505092915050565b61243b81612234565b811461244657600080fd5b50565b60008135905061245881612432565b92915050565b600080600080600080600060e0888a03121561247d5761247c612137565b5b600088013567ffffffffffffffff81111561249b5761249a61213c565b5b6124a78a828b01612404565b975050602088013567ffffffffffffffff8111156124c8576124c761213c565b5b6124d48a828b01612404565b965050604088013567ffffffffffffffff8111156124f5576124f461213c565b5b6125018a828b01612404565b955050606088013567ffffffffffffffff8111156125225761252161213c565b5b61252e8a828b01612404565b945050608061253f8a828b01612449565b93505060a06125508a828b01612449565b92505060c088013567ffffffffffffffff8111156125715761257061213c565b5b61257d8a828b01612404565b91505092959891949750929550565b60008060008060008060c087890312156125a9576125a8612137565b5b600087013567ffffffffffffffff8111156125c7576125c661213c565b5b6125d389828a01612404565b965050602087013567ffffffffffffffff8111156125f4576125f361213c565b5b61260089828a01612404565b955050604087013567ffffffffffffffff8111156126215761262061213c565b5b61262d89828a01612404565b945050606087013567ffffffffffffffff81111561264e5761264d61213c565b5b61265a89828a01612404565b935050608087013567ffffffffffffffff81111561267b5761267a61213c565b5b61268789828a01612404565b92505060a087013567ffffffffffffffff8111156126a8576126a761213c565b5b6126b489828a01612404565b9150509295509295509295565b600081519050919050565b600082825260208201905092915050565b6000819050602082019050919050565b600073ffffffffffffffffffffffffffffffffffffffff82169050919050565b6000612718826126ed565b9050919050565b6127288161270d565b82525050565b600061273a838361271f565b60208301905092915050565b6000602082019050919050565b600061275e826126c1565b61276881856126cc565b9350612773836126dd565b8060005b838110156127a457815161278b888261272e565b975061279683612746565b925050600181019050612777565b5085935050505092915050565b600060208201905081810360008301526127cb8184612753565b905092915050565b600081519050919050565b600082825260208201905092915050565b6000819050602082019050919050565b600082825260208201905092915050565b600061281b826121a4565b61282581856127ff565b93506128358185602086016121c0565b61283e816121ea565b840191505092915050565b61285281612234565b82525050565b61286181612141565b82525050565b600082825260208201905092915050565b6000612883826126c1565b61288d8185612867565b9350612898836126dd565b8060005b838110156128c95781516128b0888261272e565b97506128bb83612746565b92505060018101905061289c565b5085935050505092915050565b60006101208301600083015184820360008601526128f48282612810565b9150506020830151848203602086015261290e8282612810565b915050604083015184820360408601526129288282612810565b915050606083015184820360608601526129428282612810565b91505060808301516129576080860182612849565b5060a083015161296a60a0860182612849565b5060c083015184820360c08601526129828282612810565b91505060e083015161299760e0860182612858565b506101008301518482036101008601526129b18282612878565b9150508091505092915050565b60006129ca83836128d6565b905092915050565b6000602082019050919050565b60006129ea826127d3565b6129f481856127de565b935083602082028501612a06856127ef565b8060005b85811015612a425784840389528151612a2385826129be565b9450612a2e836129d2565b925060208a01995050600181019050612a0a565b50829750879550505050505092915050565b60006020820190508181036000830152612a6e81846129df565b905092915050565b612a7f8161270d565b8114612a8a57600080fd5b50565b600081359050612a9c81612a76565b92915050565b600060208284031215612ab857612ab7612137565b5b6000612ac684828501612a8d565b91505092915050565b600060c0820190508181036000830152612ae981896121fb565b90508181036020830152612afd81886121fb565b90508181036040830152612b1181876121fb565b90508181036060830152612b2581866121fb565b90508181036080830152612b3981856121fb565b905081810360a0830152612b4d81846121fb565b9050979650505050505050565b7f4e487b7100000000000000000000000000000000000000000000000000000000600052602260045260246000fd5b60006002820490506001821680612ba157607f821691505b602082108103612bb457612bb3612b5a565b5b50919050565b600081905092915050565b6000612bd0826121a4565b612bda8185612bba565b9350612bea8185602086016121c0565b80840191505092915050565b6000819050919050565b612c11612c0c82612234565b612bf6565b82525050565b6000612c238288612bc5565b9150612c2f8287612bc5565b9150612c3b8286612c00565b602082019150612c4b8285612c00565b602082019150612c5b8284612bc5565b91508190509695505050505050565b60008190508160005260206000209050919050565b60006020601f8301049050919050565b600082821b905092915050565b600060088302612ccc7fffffffffffffffffffffffffffffffffffffffffffffffffffffffffffffffff82612c8f565b612cd68683612c8f565b95508019841693508086168417925050509392505050565b6000819050919050565b6000612d13612d0e612d0984612234565b612cee565b612234565b9050919050565b6000819050919050565b612d2d83612cf8565b612d41612d3982612d1a565b848454612c9c565b825550505050565b600090565b612d56612d49565b612d61818484612d24565b505050565b5b81811015612d8557612d7a600082612d4e565b600181019050612d67565b5050565b601f821115612dca57612d9b81612c6a565b612da484612c7f565b81016020851015612db3578190505b612dc7612dbf85612c7f565b830182612d66565b50505b505050565b600082821c905092915050565b6000612ded60001984600802612dcf565b1980831691505092915050565b6000612e068383612ddc565b9150826002028217905092915050565b612e1f826121a4565b67ffffffffffffffff811115612e3857612e37612307565b5b612e428254612b89565b612e4d828285612d89565b600060209050601f831160018114612e805760008415612e6e578287015190505b612e788582612dfa565b865550612ee0565b601f198416612e8e86612c6a565b60005b82811015612eb657848901518255600182019150602085019450602081019050612e91565b86831015612ed35784890151612ecf601f891682612ddc565b8355505b6001600288020188555050505b505050505050565b600081549050612ef781612b89565b9050919050565b818103612f0c575050612fe4565b612f1582612ee8565b67ffffffffffffffff811115612f2e57612f2d612307565b5b612f388254612b89565b612f43828285612d89565b6000601f831160018114612f725760008415612f60578287015490505b612f6a8582612dfa565b865550612fdd565b601f198416612f8087612c6a565b9650612f8b86612c6a565b60005b82811015612fb357848901548255600182019150600185019450602081019050612f8e565b86831015612fd05784890154612fcc601f891682612ddc565b8355505b6001600288020188555050505b5050505050505b56fea2646970667358221220f5aa7fb110102a91551223b3df1b2b33aa43a8dafd155ea8b95660f46c770ce764736f6c63430008110033",
  "linkReferences": {},
  "deployedLinkReferences": {}
}